:020000040800F2
:100000006029002051110008E9130008EB130008D3
:10001000EF130008F3130008F713000800000000B6
:10002000000000000000000000000000FD130008B8
:10003000FB130008000000007B47000801140008C3
:1000400023140008251400082714000829140008A8
:100050002B1400082D1400082F1400083114000878
:1000600033140008351400086714000869140008E8
:100070006B1400086D1400086F1400087114000858
:100080007314000875140008771400086B11000839
:100090006B1100086B1100086B1100088114000837
:1000A00083140008851400088714000889140008C8
:1000B0008B1400088D1400088F1400089114000898
:1000C0009314000895140008971400089914000868
:1000D0009B1400089D140008771500087915000886
:1000E0007B1500087D1500087F15000881150008A4
:1000F0008315000885150008871500088915000874
:100100008B1500088D1500088F1500089115000843
:100110009315000895150008971500089915000813
:100120009B1500089D1500089F150008A1150008E3
:10013000DFF80CD007F010FA00480047AF130008B2
:100140006029002031490143314A1160704770B580
:10015000002100230F22C4780CB32D4C246804F432
:10016000E064C4F5E064210AC1F10403CA404478A4
:1001700004FA03F18478144021430901254C0678E0
:10018000A155047804F01F050124AC4005786D11D9
:100190004FF0E02606EB8505C5F8004109E004783C
:1001A00004F01F050124AC401B4D0678761145F87C
:1001B000264070BD194A0A400243154B1B1F1A60A6
:1001C000704739B1124A121D12680243104B1B1DB1
:1001D0001A6006E00E4A121D126882430C4B1B1D6A
:1001E0001A607047042808D14FF0E021096941F0F6
:1001F00004014FF0E022116107E04FF0E0210969AE
:1002000021F004014FF0E022116170470000FA056F
:100210000CED00E000E400E080E100E080FFFF1F63
:10022000002044490860091D0860091D0860091D77
:10023000086041483F4914310860704700213D493A
:100240008279002A3AD00A46126803689A430B461C
:100250001A600A1D126803689A430B1D1A6002791E
:1002600011440A6803681A430A60324A0832126865
:1002700003689A432F4B08331A601A1D12680368EB
:100280009A432C4B0C331A604279102A0ED11A1F54
:10029000126803681A43274B08331A601A1D126844
:1002A00003681A43234B0C331A600DE0214942794D
:1002B00011440A6803681A430A6005E00279114490
:1002C0000A6803689A430A6070470021016001715F
:1002D0000C21417100218171704716491031096864
:1002E0000143144A10321160704701460020114A40
:1002F000143212680A4201D0012000E00020704749
:100300000C49143108607047014600200022094B57
:100310001B6803EA0102074B14331B680B4202D02F
:100320000AB1012000E00020704702491431086042
:100330007047000000040140FFFF0F0010B50446A5
:10034000CA48844208D10121042000F025FB002185
:10035000042000F021FB46E0C548844208D1012179
:10036000082000F019FB0021082000F015FB3AE0FE
:10037000C048844208D10121102000F00DFB00216B
:10038000102000F009FB2EE0BB48844208D1012177
:10039000202000F001FB0021202000F0FDFA22E0E7
:1003A000B648844208D10121402000F0F5FA00212E
:1003B000402000F0F1FA16E0B148844208D1012152
:1003C000802000F0E9FA0021802000F0E5FA0AE040
:1003D000AC48844207D10121801500F0DDFA0021EC
:1003E000A01500F0D9FA10BD10B50121084600F0A3
:1003F000D3FA0021012000F0CFFA10BD2DE9F04121
:10040000024600250026002000230024002791F842
:1004100003C00CF00F0591F803C01CF0100F03D0BF
:1004200091F802C04CEA0505B1F800C01CF0FF0FBE
:1004300031D0146800202BE04FF0010C0CFA00F3CF
:10044000B1F800C00CEA03069E4220D183004FF0B1
:100450000F0C0CFA03F7BC4305FA03FC4CEA040446
:1004600091F803C0BCF1280F06D14FF0010C0CFA33
:1004700000FCC2F814C00AE091F803C0BCF1480FB8
:1004800005D14FF0010C0CFA00FCC2F810C0401C62
:100490000828D1D31460B1F800C0BCF1FF0F34DDDF
:1004A000546800202EE000F1080C4FF0010808FA13
:1004B0000CF3B1F800C00CEA03069E4221D1830080
:1004C0004FF00F0C0CFA03F7BC4305FA03FC4CEA9F
:1004D000040491F803C0BCF1280F05D100F1080C09
:1004E00008FA0CF8C2F8148091F803C0BCF1480F68
:1004F00007D100F1080C4FF0010808FA0CF8C2F817
:100500001080401C0828CED35460BDE8F0814FF61F
:10051000FF710180022181700421C1707047024681
:10052000002093680B4201D0012000E000207047BA
:100530000146886880B2704702460020D3680B42AB
:1005400001D0012000E0002070470146C86880B259
:10055000704701617047416170470AB1016100E075
:1005600041617047C16070474FF480320A43826135
:100570008161826182698269704702460020424B34
:1005800018684FF68073184040EA021008433E4B4B
:10059000186070473D49C8617047F0B50A460023AE
:1005A00000240021002500F00046B6F1004F02D1E2
:1005B000354EF16901E0344E7168C0F3034583B2F2
:1005C00000F44016B6F5401F08D121F070612E4EA0
:1005D000766826F070662C4F7E6012E000F480167C
:1005E000B6F5801F06D1032606FA05F4A14341F0B3
:1005F000706106E0460D360103FA06F6B14341F09C
:10060000706122B1460D360103FA06F6314300F05F
:100610000046B6F1004F02D11B4EF16101E01A4EC7
:100620007160F0BD30B500228B071C0F0F2303FA59
:1006300004F2154B08338C1053F824309343124CBA
:1006400008348D1044F8253023468C1053F824309C
:100650008C07240F00FA04F423430B4C08348D104C
:1006600044F8253030BD0A49086070470008014051
:10067000000C01400010014000140140001801402E
:10068000001C014000200140000001400000204209
:10069000DC002042DC48006840F00100DA490860D4
:1006A00008464068D9490840D7494860084600686C
:1006B000D7490840D44908600846006820F48020E3
:1006C00008600846406820F4FE0048604FF41F00B0
:1006D00088607047CC49096821F48031CA4A1160AA
:1006E0001146096821F480211160B0F5803F03D0E4
:1006F000B0F5802F0ED106E0C349096841F480317E
:10070000C14A116007E0C049096841F4A021BE4A0E
:10071000116000E000BF00BF704710B50146002225
:10072000002300204A11012A02D1B74C236806E0B9
:10073000022A02D1B44C236A01E0B34C636A01F08F
:100740001F02012494401C4201D0012000E000203F
:1007500010BD70B500240025002600BF3120FFF732
:10076000DCFF0646641CB4F5A06F01D0002EF5D066
:100770003120FFF7D2FF08B1012500E0002528460F
:1007800070BD01460020A04A106820F0F80040EA41
:10079000C100106070479F49086070470246002002
:1007A000994B586820F47C1042EA01031843964B99
:1007B0005860704797490866704701460020924A82
:1007C000506820F003000843506070478E4840682E
:1007D00000F00C007047014600208B4A506820F062
:1007E000F00008435060704701460020864A506878
:1007F00020F4E06008435060704701460020824AC0
:10080000506820F4605040EAC1005060704729B140
:100810007D4A527A02437C4B5A7206E07A4A527AF7
:10082000C343DBB21A40784B5A7270477A4908606A
:10083000704701460020744A506820F44040084345
:10084000506070470021754A11706F4A82F820107D
:10085000012802D0042808D103E001216F4A117059
:1008600004E005216D4A117000E000BF00BF704731
:100870006B49086070476449096A0143624A116222
:100880007047674944390860704730B5002100223D
:10089000002400235C4D6D6805F00C0121B1042992
:1008A00005D0082923D105E05E4D056022E05D4DAD
:1008B00005601FE0544D6D6805F47012524D6D686F
:1008C00005F48034022505EB92421CB9564D554380
:1008D00005600BE04C4D6D6815F4003F03D0524DA0
:1008E0005543056002E04F4D5543056002E04D4D14
:1008F000056000BF00BF444D6D6805F0F0010909B7
:100900004A4D6B5C0568DD4045603F4D6D6805F400
:10091000E061090A454D6B5C4568DD4085603A4DF4
:100920006D6805F46051C90A404D6B5C4568DD4057
:10093000C560354D6D6805F44041890B3C4D6B5CDD
:10094000C568B5FBF3F5056130BD29B12E4A526982
:1009500002432D4B5A6104E02B4A526982432A4BD1
:100960005A61704729B1284A92690243264B9A611D
:1009700004E0254A92698243234B9A61704729B16A
:10098000214AD2690243204BDA6104E01E4AD2694F
:1009900082431D4BDA61704729B11B4AD26802437A
:1009A000194BDA6004E0184AD2688243164BDA60C9
:1009B000704729B1144A12690243134B1A6104E0CB
:1009C000114A12698243104B1A6170471449403929
:1009D000086070470F49C86470470B49C871704779
:1009E0000948406A40F080700749486270470146F4
:1009F0000020054A92680A4201D0012000E0002050
:100A00007047014988727047001002400000FFF8EB
:100A1000FFFFF6FE00004242D80042422010024092
:100A20008004424200127A0000093D0000000020CC
:100A30001000002010B50446BF48844208D10121AF
:100A40008014FFF7A9FF0021A014FFF7A5FF16E00F
:100A5000BA48844208D101210014FFF7AAFF0021FF
:100A60002014FFF7A6FF0AE0B548844207D1012110
:100A7000C013FFF79EFF0021E013FFF79AFF10BDA0
:100A800010B50022028802F441520B884C8823439F
:100A90008C882343CC8823430C8923434C892343EC
:100AA0008C892343CC8923431A430280838B4FF2E2
:100AB000FF74234083830B8A038210BD2DE9F04F1E
:100AC00085B005460C464FF0000902274FF000089C
:100AD0004FF0010B0026B246A88B4FF240010840B0
:100AE000A88302202884B5F81C90A068022801D1B0
:100AF00000BF36E0A08810B94FF0010B01E04FF0C5
:100B0000020B8E48854200D100E000BF6846FFF727
:100B1000BCFEDDF800A0E088B0F5007F0AD14FEA06
:100B20001A2000EB80004000A168B0FBF1F0401DEE
:100B300086B20BE04FEA4B10BAFBF0F000EB8000FE
:100B40004000A168B0FBF1F0401D86B20A20B6FB60
:100B5000F0F606F00108A6EB0800C0F34F074FEAD5
:100B60000828022F01DBFF2F02DD02274FF00008CB
:100B7000E08840EA080038432884A088A189084317
:100B8000618808432188084340F4006040EA09096D
:100B9000A5F81C9005B0BDE8F08F002101804180D0
:100BA0008180C180018141818181C18107210182D0
:100BB00070470021018041808180C18002218160D5
:100BC00000218181704721B1028842F040020280F9
:100BD00004E002884FF6BF731A400280704721B1CB
:100BE000828B42F48062828304E0828B4FF6FF3373
:100BF0001A408283704770B5002400230C11012530
:100C0000A540ABB21AB185881D43858004E0858874
:100C1000DE43B6B23540858070BD10B51AB1838809
:100C20000B43838004E08388CC43A4B223408380B9
:100C300010BD81817047014688897047A1F57E42C9
:100C4000FF3A04D0028842F48072028004E00288F5
:100C50004FF6FF631A400280704721B1828842F04C
:100C60000402828004E082884FF6FB731A4082807F
:100C7000704702884FF2FF731A40028002880A43CD
:100C800002807047018841F480510180704721B192
:100C9000028842F40052028004E002884DF6FF739D
:100CA0001A400280704702460020012901D0108BB3
:100CB00000E0908A70470146088A7047B1F5804F7E
:100CC00004D1028842F48042028004E002884BF69C
:100CD000FF731A40028070470246002013890B42BE
:100CE00001D0012000E000207047CA430281704714
:100CF000F0B50246002000240023002501F00F0774
:100D00000126BE40B4B20B1101269E40B3B29688B4
:100D100006EA03051689264202D00DB1012000E043
:100D20000020F0BD10B5002201F00F040123A34004
:100D30009AB2D343038110BD003001400038004017
:100D4000003C004010B50446FC48844209D1012112
:100D50008803FFF721FE00214FF48040FFF71CFEBF
:100D600032E0F748844209D101214804FFF721FE0F
:100D700000214FF40030FFF71CFE25E0F1488442CB
:100D800009D101218804FFF714FE00214FF48020CF
:100D9000FFF70FFE18E0EC48844209D10121C80496
:100DA000FFF707FE00214FF40020FFF702FE0BE0E3
:100DB000E648844208D101210805FFF7FAFD002129
:100DC0004FF48010FFF7F5FD10BD2DE9F04786B018
:100DD00005460E460024A24600BFA1460027B08962
:100DE00000B100BF2F462C8A4CF6FF700440F088FB
:100DF00004432C82AC894EF6F3100440B08831894C
:100E00000843718908430443AC81AC8A4FF6FF4024
:100E10000440B0890443AC8201A8FFF736FDC748FF
:100E2000874202D1DDF810A001E0DDF80CA0A8890E
:100E300010F4004F08D00AEBCA0000EB0A1031682A
:100E40004900B0FBF1F807E00AEBCA0000EB0A101A
:100E500031688900B0FBF1F86420B8FBF0F00401C0
:100E60002009642101FB1089A88910F4004F08D0E3
:100E7000322000EBC900B0FBF1F000F007000443A2
:100E800008E0322000EB09106421B0FBF1F000F023
:100E90000F0004432C8106B0BDE8F0874FF41651D3
:100EA000016000218180C18001810C2141810021EC
:100EB0008181704710B502460020108A4FF2FF036F
:100EC00018400B884C8823438C882343CC882343C9
:100ED0001843108210BD0021018041808180C180B3
:100EE000704721B1828942F40052828104E08289F4
:100EF0004DF6FF731A4082817047F0B50346002417
:100F0000002600250020A1F510676A3F00D100BF30
:100F10001846C1F3421401F01F06012707FA06F52F
:100F2000012C01D10C3004E0022C01D1103000E082
:100F300014301AB107682F43076002E00768AF4317
:100F40000760F0BD10B51AB1838A0B43838204E0B9
:100F5000838ACC43A4B22340838210BD028A4FF619
:100F6000F0731A400282028A0A4302827047828921
:100F70004FF2FF731A40828182890A43828170474F
:100F800021B1828942F00202828104E082894FF617
:100F9000FD731A4082817047028A4FF6DF731A4050
:100FA0000282028A0A430282704721B1028A42F415
:100FB0008042028204E0028A4BF6FF731A400282EA
:100FC0007047C1F308028280704701468888C0F3E9
:100FD00008007047818941F0010181817047028BCF
:100FE000D2B20283028B42EA012202837047028B53
:100FF00002F47F420283028B0A430283704721B1CD
:10100000828A42F02002828204E0828A4FF6DF73F5
:101010001A408282704721B1828A42F01002828295
:1010200004E0828A4FF6EF731A408282704721B142
:10103000828A42F00802828204E0828A4FF6F773C5
:101040001A408282704721B1828942F40042828133
:1010500003E08289C2F30E028281704721B1828A45
:1010600042F40062828204E0828A4FF2FF731A40E7
:1010700082827047828A4FF6FB731A408282828A8C
:101080000A438282704721B1828A42F00202828240
:1010900004E0828A4FF6FD731A408282704702464E
:1010A0000020B1F5007F00D100BF13880B4201D0B2
:1010B000012000E00020704701F40072B2F5007FCB
:1010C00000D100BFCA430280704770B502460024B9
:1010D000002300250020A1F510666A3E00D100BF64
:1010E000C1F3421501F01F03012606FA03F3012D97
:1010F00002D19689334006E0022D02D1168A334090
:1011000001E0968A33400C12012606FA04F4168890
:10111000344013B10CB1012000E0002070BD10B5C7
:1011200000220023A1F510646A3C00D100BF0A121E
:1011300001249440A3B2DC43048010BD0038014078
:101140000044004000480040004C00400050004077
:101150000648804706480047FEE7FEE7FEE7FEE751
:10116000FEE7FEE7FEE7FEE7FEE7FEE73D120008CA
:101170003101000800210020674A126842F48032E1
:10118000654B1A6000BF644A126802F40030491CC3
:1011900010B9B1F5A06FF6D15F4A126812F4003FA2
:1011A00001D0012000E00020012842D15B4A1268F2
:1011B00042F01002594B1A601A46126822F00302DC
:1011C0001A601A46126842F002021A60524A5268C5
:1011D000514B5A601A4652685A601A46526842F495
:1011E00080625A601A46526822F47C125A601A468B
:1011F000526842F4E8125A601A46126842F080724D
:101200001A6000BF444A126812F0007FFAD0424AC6
:10121000526822F00302404B5A601A46526842F06C
:1012200002025A6000BF3C4A526802F00C02082ACF
:10123000F9D1704710B5FFF79DFF10BD10B53648C6
:10124000006840F0010034490860084640683449AD
:1012500008403149486008460068324908402E4934
:1012600008600846006820F480200860084640684E
:1012700020F4FE0048604FF41F008860FFF7DAFF9B
:101280004FF000602849086010BD10B50021002013
:101290000022214B5B6803F00C0121B1042906D028
:1012A000082928D107E0214B214C236027E01F4B60
:1012B0001F4C236023E0184B5B6803F47010164B3F
:1012C0005B6803F48032022303EB904022B9194B90
:1012D0004343174C23600DE00F4B5B6813F4003F52
:1012E00004D0144B4343124C236003E00F4B4343A1
:1012F0000F4C236003E00D4B0D4C236000BF00BF7B
:10130000054B5B68C3F303130B4CE15C084B1B6894
:10131000CB40074C236010BD00100240002002406B
:101320000000FFF8FFFFF6FE08ED00E000127A0073
:101330001400002000093D001800002011E03223B5
:1013400000221146104603F045F91F480068401C72
:101350001D49086008460068B0F1004F01D1002027
:101360000860ECE7002002F034FB1849086003E055
:1013700000F02CFD00F070FDFAE710B5044600F017
:1013800061F900F09DFA00F095FD01F005FD0623DE
:101390000F4A00210F4802F0C9FD05230E4A002123
:1013A0000E4802F0C3FDFF2002F06EFE10BD10B526
:1013B00001F0F5FB04230A4A00210A4802F0B6FDB9
:1013C00001F0D2FC002010BD2800002030000020D9
:1013D0005804002065130008580600203D1300083B
:1013E000580200207B130008704700BFFEE700BFD3
:1013F000FEE700BFFEE700BFFEE77047704770479B
:1014000010B503F099F9044666480078401C654918
:101410000870204603F094F901F0DDFC01F0E3FBD5
:1014200010BD7047704770477047704770477047EE
:101430007047704710B503F07FF9044659480078AB
:10144000401C58490870204603F07AF9012056499B
:1014500008705648006802F011FC002052490870DC
:1014600001F0C1FB10BD704770477047704770476F
:1014700070477047704770477047704770477047B4
:1014800070477047704770477047704770477047A4
:1014900070477047704770477047704710B503F04A
:1014A0004BF904463F480078401C3E4908702046EE
:1014B00003F046F940F225513D48FFF706FE0028AB
:1014C00056D03C48007880B93948FFF77EFD3A494C
:1014D000087008460078C02803D1012035490870FB
:1014E00046E000203349087042E032480078012885
:1014F00008D12F48FFF769FD2F49487002202D4978
:10150000087035E02B480078022808D12848FFF7FA
:101510005CFD2949887003202649087028E0254889
:101520000078032821D12248FFF74FFD2249C870D7
:101530000978214A527811441F4A927811441E4A70
:10154000D2788818C11700EB11610912B0EB0121A4
:1015500004D119491948006802F090FBFF20164990
:10156000087000201349087002E00020114908703B
:1015700001F039FB10BD70477047704770477047E6
:1015800070477047704770477047704770477047A3
:101590007047704770477047704770477047704793
:1015A0007047000079000020390000203000002042
:1015B0000038014034000020350000202C000020BD
:1015C0001CB503210020FFF72DF808200090002013
:1015D0008DF804000C208DF8050001208DF8060020
:1015E0006846FEF72BFE1CBD30B585B06846FFF798
:1015F0004CF94FF47A720198B0FBF2F1B1F1807FAF
:1016000000D31DE021F07F40401E4FF0E0225061EA
:1016100050170F22002807DA13071D0E214B00F088
:101620000F04241F1D5503E013071C0E1E4B1C54F2
:1016300000BF00204FF0E02290610720106100BF42
:1016400005B030BD10B5FFF7F9FDFFF7CDFFFFF78F
:10165000B7FF10BD08B500214FF00060FEF7AAFDEE
:101660004FF4A060FEF76EFD25208DF800000220EB
:101670008DF801008DF8020001208DF80300684606
:10168000FEF765FD09208DF8000002208DF80100AD
:1016900003208DF8020001208DF803006846FEF754
:1016A00056FD08BD18ED00E000E400E000B585B08F
:1016B000012144F20500FFF755F94FF40070ADF831
:1016C000100003208DF8120018208DF8130004A9D3
:1016D0007948FEF793FE4FF48060ADF810000420C7
:1016E0008DF8130004A97448FEF788FE4FF41650D5
:1016F00000900020ADF80400ADF80600ADF8080039
:10170000ADF80C000C20ADF80A0069466B48FFF7F5
:101710005CFB012240F225516848FFF7EEFB0121F6
:101720006648FFF7DEFB40216448FFF7C5FC05B0C3
:1017300000BD70B504460D46E1B26048FFF741FCBC
:1017400000BF5E48008810F0800FFAD0204670BDC0
:10175000F0B503460D461646002729460A2E03D04B
:10176000002008702846F0BD33B9302001F8010B85
:10177000002008702846F6E7002B03DA2D2001F838
:10178000010B5B4242F210720DE093FBF2F404B9DC
:1017900037B104F1300001F8010B04FB12330127CB
:1017A0000A2092FBF0F2002AEFDC002008702846A5
:1017B000D9E70FB470B586B006460CA8019073E067
:1017C0000B9800785C281CD10B98401C0B9000787B
:1017D0006E2809D072280FD10D213046FFF7F1FB9A
:1017E0000B98401C0B900BE00A213046FFF7E9FBF9
:1017F0000B98401C0B9003E00B98401C0B9000BF13
:101800004BE00B980078252840D10B98401C0B909A
:101810000078642818D0732833D1019810C801903B
:101820000BE021783046FFF7CCFB00BF402130466B
:10183000FFF735FC0028F9D0641C20780028F0D18F
:101840000B98401C0B9020E0019820C801900A22C0
:1018500002A92846FFF77CFF02AC0BE02178304656
:10186000FFF7AFFB00BF40213046FFF718FC002810
:10187000F9D0641C20780028F0D10B98401C0B9004
:1018800003E00B98401C0B9000BF06E00B9810F88B
:10189000011B0B903046FFF794FB00BF4021304600
:1018A000FFF7FDFB0028F9D00B980078002887D1BE
:1018B00006B070BC5DF814FB000801400038014020
:1018C00000B587B0012141F20400FFF74BF8E0209A
:1018D000ADF8180001208DF81A0018208DF81B00B3
:1018E00006A93148FEF78AFD1020ADF81800012046
:1018F0008DF81A0010208DF81B0006A92A48FEF763
:101900007DFD10212848FEF724FE0820ADF81800C0
:1019100001208DF81A0048208DF81B0006A92248E6
:10192000FEF76CFD08212048FEF713FE0020ADF8FD
:1019300004004FF48270ADF806000020ADF80800F6
:10194000ADF80A00ADF80C004FF40070ADF80E00D1
:101950001020ADF810000020ADF812000720ADF8FF
:10196000140001A91148FFF78BF801210F48FFF778
:101970002AF907B000BD10B5044600BF02210B488C
:10198000FFF7AAF90028F9D021460848FFF751F9D6
:1019900000BF01210548FFF79FF90028F9D003484F
:1019A000FFF749F9C0B210BD000801400030014006
:1019B00070B505460C4600261020F249086004F078
:1019C0001F0040EA05063046FFF7D5FFFF20FFF76E
:1019D000D2FF064614F0800F03D0FF20FFF7CBFFA5
:1019E00006461020E749091F0860304670BD2DE902
:1019F000F04104460D46164600271020E1490860D4
:101A000005F01F0040EA04073846FFF7B4FF3746E9
:101A10003846FFF7B0FF1020DA49091F0860BDE81B
:101A2000F08170B505460C461020D64908603A2072
:101A3000FFF7A1FF05E06D1E0020FFF79CFF20705F
:101A4000641C002DF7D1002020701020CD49091F03
:101A5000086070BD70B504460D461020C949086085
:101A60007A20FFF788FF04E0641E2878FFF783FFE1
:101A70006D1C002CF8D11020C249091F086070BDF0
:101A800010B5044604F06000BF49097888420ED0C2
:101A900003221F21A020FFF7AAFFC4F341121F2138
:101AA0008020FFF7A4FF04F06000B749087010BD64
:101AB00010B504462046FFF7E3FF21460020FFF75C
:101AC00077FF10BD70B504460D462046FFF7D8FFDE
:101AD0002A4621464020FFF78AFF70BD70B50546B3
:101AE0000C462946D420FFF7EDFFE1B2D620FFF7E0
:101AF000E9FFC4F30721D720FFF7E4FF00BFEA2086
:101B0000FFF7D6FF10F0010FF9D170BD10B50446F4
:101B100004F007017520FFF7D5FF10BD10B504468E
:101B200010209849091F0860FF2200211046FFF786
:101B30005EFF00209549086000210820FFF7C2FFE2
:101B400000210920FFF7BEFF00210C20FFF7BAFF9C
:101B500000210D20FFF7B6FFFE210A20FFF7B2FF9C
:101B600019210B20FFF7AEFFFF210420FFF7AAFF8A
:101B700019210520FFF7A6FFFF210620FFF7A2FF8E
:101B80001F210720FFF79EFFB0213820FFF79AFFA3
:101B90003F212820FFF796FF30212920FFF792FFF1
:101BA000F9213020FFF78EFFF7213120FFF78AFF60
:101BB0000D21C020FFF786FF0021C120FFF782FF23
:101BC0003322C2218020FFF712FF1221C620FFF727
:101BD00079FF0C21C720FFF775FF1521C420FFF7FF
:101BE00071FFDC21CA20FFF76DFF0521CB20FFF735
:101BF00069FF2178E420FFF765FF6178E520FFF7B2
:101C000061FFA178E220FFF75DFFE178E320FFF7B5
:101C100059FF2179E020FFF755FF6179E120FFF7B7
:101C200051FF4FF480710020FFF758FF4FF480718F
:101C30001020FFF753FF1F20FFF722FFC0221B21B8
:101C40008020FFF7D4FE04221F218020FFF7CFFE63
:101C500010BD10B57220FFF72BFF10BD70B5044604
:101C60000D46FF210220FFF72DFF19210320FFF76A
:101C700029FFFF202044C1B20620FFF723FF41F6D1
:101C8000FF102044C0F307210720FFF71BFF0022AD
:101C900011467A20FFF7ABFE29462046FFF7DAFE11
:101CA00008221F218020FFF7A2FE1C20FFF700FF63
:101CB00010F0020F04D008221F21A020FFF797FE8A
:101CC00070BD2DE9F04105460F463920FFF7F0FEC3
:101CD00010B90020BDE8F0812C480068C1B2002096
:101CE000FFF7F0FE29480068C0F307210120FFF745
:101CF000E9FE00213A20FFF75BFE2449086000213D
:101D00003A20FFF755FE2149096841EA00201F49A2
:101D1000086000213A20FFF74BFE044600213A20DC
:101D2000FFF746FE44EA0024241F00213A20FFF773
:101D30003FFE064600213A20FFF73AFE46EA00261B
:101D4000681EA04200D26C1E16F0800F01D1002444
:101D500003E039462046FFF764FE0C480068C1B234
:101D60000C20FFF7AFFE09480068C0F307210D20E3
:101D7000FFF7A8FE40221E218020FFF738FE2046F4
:101D8000A8E70000140801403C00002040000020AB
:101D900001480068704700002800002010B500F0DE
:101DA0008EFA10BD10B5074940F2DC50FFF789FFED
:101DB00080B210BD10B5034903480088FFF74EFFFD
:101DC00010BD0000901C0020BC00002010B50024B5
:101DD0005F4803F012F800283DD05D4803F002F898
:101DE00000BF15E000BF04EB84005A4901EBC000BE
:101DF00059490860022003F03FFA00BF57480088A5
:101E0000002803DD04F0D5FCFFF7D4FF601CC4B24A
:101E10000A2CE7DB002413E000BF514800EB04105C
:101E200050490860052003F027FA00BF4B4800889E
:101E3000002803DD04F0BDFCFFF7BCFF601CC4B24A
:101E40000A2CE9DB484802F0D8FF20B1464802F0EE
:101E5000C9FF04F094FB10BD10B5FFF7A3FF3F4985
:101E6000088008460088002823DD4FF4006003F056
:101E70002CF83E49898988420BD1012003F0FCF9F6
:101E800036480088002814DD04F093FCFFF792FF29
:101E90000FE040F6060003F018F8344989898842BB
:101EA00007D104F01AFC2D480088002801DDFFF757
:101EB00081FF10BD08B50A21254802F08BFFC8211B
:101EC000294802F087FFFFF769FF03F04BF800BFD6
:101ED0004AF6C000ADF8000040F60170ADF802000F
:101EE00000BF00BFBDF8000021490880BDF8020016
:101EF000488000BF00BF4AF6C000ADF8000040F2C5
:101F00000110ADF8020000BF00BFBDF80000194984
:101F10000880BDF80200488000BF00BF4FF6FF7088
:101F2000ADF80000FF20ADF8020000BF00BFBDF813
:101F3000000011490880BDF80200488000BF4BF244
:101F4000040003F04EF94FF4A04003F04AF908BD35
:101F50004400002070220020C4000020BC000020AB
:101F600014240020C80000204C000020901C0020F9
:101F7000A8000020AC000020B000002010B5E6480A
:101F8000006800F11C04A068002803DDD4E9010109
:101F900004F0BBFA10BD70B50446E048008807287D
:101FA0001CD10622DE480168DEA005F06FFAA8B950
:101FB000DB4800688579312D02D1DCA0606008E043
:101FC000322D02D1DCA0606003E0332D01D1DDA011
:101FD0006060606805F052FAA0604BE0CF4800886E
:101FE00008281CD10722CE480168D9A005F04EFA76
:101FF000A8B9CB480068C579312D02D1D6A0606060
:1020000008E0322D02D1D7A0606003E0332D01D16A
:10201000D7A06060606805F031FAA0602AE0BF4890
:10202000008806280ED10622BD480168D3A005F01D
:102030002DFA38B901202070D24860604FF4AF60AB
:10204000A06017E0B548008806280DD10622B448E4
:102050000168CDA005F01AFA30B902202070CCA09A
:1020600060600220A06005E0CAA06060606805F0C2
:1020700005FAA06070BD10B5A748006800F11C0407
:10208000207818B92046FFF786FF27E0207801283E
:102090000CD1A2480088012804D1A148006800782A
:1020A00041281BD000202070A06017E02078022873
:1020B00014D19A48008804280AD10422984801685B
:1020C000B9A005F0E3F918B900202070A06005E080
:1020D00093480068606091480088A06010BD8E49F8
:1020E000096801F11C00017821B1012905D00229FC
:1020F0000CD108E00021816008E0A24941604FF462
:10210000AF61816002E00021816000BF00BF7047C5
:1021100010B58148006800F11C0445224FF40061AD
:10212000984805F083F900202070A060A0A06060AE
:10213000606805F0A3F9A06010BD70477047704754
:1021400010B5A348007810F0200F01D0FFF7F7FF7B
:102150009F48007810F0800F01D0FFF7EFFF9C48F8
:10216000007810F0100F01D0FFF7E7FF98480078D3
:1021700010F0400F01D0FFF7CBFF9548007810F02A
:10218000010F01D0FFF7ABFF9148007810F0020F6C
:1021900001D0FFF770FF8E48007810F0040F13D1C4
:1021A0008B48007810F0020F0ED18948007810F0AB
:1021B000010F09D18648007810F0400F04D18448FF
:1021C000007810F0080F01D0FFF7D8FE10BD70B5F1
:1021D00004460D46524806682A462146304605F018
:1021E00013F929464E48006804F08FF970BD70B5A8
:1021F0004A48008805B24A480468042D04DA1A21C6
:1022000074A0FFF7E4FF50E0072279A1204605F013
:1022100053F920B9102178A0FFF7D9FF45E0072234
:102220007AA1204605F048F920B9082179A0FFF7E6
:10223000CEFF3AE007227AA1204605F03DF920B909
:10224000082179A0FFF7C3FF2FE0072279A12046DC
:1022500005F032F920B9082178A0FFF7B8FF24E093
:10226000082279A1204605F027F920B9082179A094
:10227000FFF7ADFF19E0082279A1204605F01CF90F
:1022800020B9082179A0FFF7A2FF0EE008227AA169
:10229000204605F011F920B908217AA0FFF797FF31
:1022A00003E010217AA0FFF792FF70BD10B54848F7
:1022B000007810F0020F01D0FFF799FF10BD10B5A4
:1022C0007848FFF72BFC002405E07648005D76494E
:1022D0000855601CC4B2062CF7DB40F2764114208E
:1022E000FFF7FCFB0220FFF711FC10BD10B50A48F8
:1022F00000688088B0F5A04F04D0A0F530400438C5
:1023000006D102E004F083FE02E0FFF719FF00BFF0
:1023100000BF10BD70470000C4000020BC000020BA
:10232000B40000206C65646F6E2000004D794C6530
:10233000642031204F6E21004C65642032204F6EA6
:10234000210000004C65642033204F6E2100000006
:102350006C65646F666620004C65642031206F6692
:10236000662100004C65642032204F666621000023
:102370004C65642033204F666621000074787465D4
:10238000737400005C06002072787465737400003A
:102390004F6B0000556E6B6E6F7720436F6D6D61F4
:1023A0006E64210D0A00000073746F70000000005D
:1023B000436F6E6E6563742053544D33322D524318
:1023C00020426F61726420537563636573732100EB
:1023D000C0000020506C6561736520636865636BA5
:1023E0002074686520636F6D6D616E64210A000062
:1023F0006765746E616D6500CED2B5C475495020B5
:10240000554450B3CCD0F20A000000006C65646FF4
:102410006E2031004C45443120C1C10A000000004B
:102420006C65646F6E2032004C45443220C1C10A95
:10243000000000006C65646F6E2033004C4544332F
:1024400020C1C10A000000006C65646F666620311F
:10245000000000004C45443120C3F00A0000000099
:102460006C65646F66662032000000004C454432A3
:1024700020C3F00A000000006C65646F66662033BC
:10248000000000004C45443320C3F00A0000000067
:10249000556E6B6F776E20636F6D6D616E64210A90
:1024A0000000000058000020A2000020024600208A
:1024B00005E011F8013B02F8013B431CD8B20B7850
:1024C000002BF6D1137070472DE9F04105460E46FA
:1024D00014460027F7480078002804DD11202070FA
:1024E0000020BDE8F0812878012808D0022807D014
:1024F000032802D0042804D100E000BF00BF00BFC1
:1025000003E0012020700020EBE700BF02F014F987
:10251000074605F10F013046FFF7C8FF80463846F1
:1025200002F00EF9002020704046DAE70146002054
:1025300002E0491C421CD0B20A78002AF9D1704747
:102540002DE9F04105460F4614464FF00008D948E2
:102550000078002803DD12202070BDE8F081287883
:10256000012808D0022807D0032802D0042804D16B
:1025700000E000BF00BF00BF02E001202070ECE7D8
:1025800000BF02F0D9F880463846FFF7CFFF064675
:102590000F2E05DD404602F0D3F80B202070DCE75B
:1025A000394605F10F00FFF781FF404602F0C8F8F9
:1025B0000020207000BFD0E7F0B5024612F8344F7B
:1025C00095785678A2F134020B4618680FE000F1B6
:1025D0000B073F5DB74300F10B0C0CF80470674626
:1025E0003F5D17B9877AAF4387721B1D18680028B3
:1025F000EDD1F0BDB049B14A1278885CB049095CB0
:10260000AD4A515C01EBC001AE4A1170704710B584
:10261000002402F091F80446A6480078F0B9AA48D0
:102620000078D8B9FFF7E6FFA6480078A7490978EF
:10263000884213D0A648A349097850F82100A5493B
:10264000086008460068806B401C09688863A248DF
:102650000068401CA049086002F085F8204602F09E
:102660006FF810BD70B5014600249C4D2D68EC61DB
:102670009A4C246821620B4618681BE0974C24682A
:1026800094F8345000F10B04645D944D2D6895F876
:1026900035502C43914D2D6895F8346000F10B05B1
:1026A000AC55847A8D4D2D6895F836502C43847244
:1026B0001B1D18680028E1D1884C246894F8342048
:1026C0007F4CA45C854D2D6895F83550AC437C4D0E
:1026D000AC542C46A45C44B9804C246894F8365021
:1026E000764C2478AC43754D2C7070BD2DE9FF4FAE
:1026F00083B080460E461546109F00200190306042
:10270000C146D9F8004018E02078012807D00328F6
:1027100004D0042805D0052802D103E008E007E032
:1027200000BF00BF01203870002007B0BDE8F08F67
:1027300000BF09F10409D9F80040002CE4D15D483C
:102740000078002803DD022038700020EDE75E48A5
:102750000078002803DD0D2038700020E5E701F047
:10276000EBFF01900020029082468346C146D9F8D3
:1027700000403DE02078012819D0032804D0042827
:1027800027D0052824D125E0208900280CDD2089C8
:10279000401E208110C601200290002001C50AF1D0
:1027A00001001FFA80FA01E04BF0010B1BE06068AA
:1027B00058B1606801C50020606010C60120029019
:1027C0000AF101001FFA80FA01E04BF0020B0AE067
:1027D00000BF00BF019801F0B3FF0020306001206E
:1027E00038705046A1E700BF09F10409D9F800404C
:1027F000002CBFD10298012808D100203060019838
:1028000001F09EFF0020387050468EE73348006884
:1028100090F830004BF0800108433049096881F896
:10282000300000202D49096881F831002B490698B5
:102830000968C8854046FFF715FF019801F080FF41
:10284000FFF7E5FE01F078FF01902448006890F85A
:10285000310020B101281BD0022818D100E000BFB0
:102860001E480068C4693CB110C6002030600AF1FF
:1028700001001FFA80FA09E001201849096881F86F
:102880003100414615480068FFF796FE06E000BF9C
:10289000414612480068FFF78FFE00BF00BF0F4897
:1028A000006890F83100D8B101283FD002283CD10F
:1028B00036E0000079000020B07A00087D0000209A
:1028C0007E0000207C0000207A0000207B00002099
:1028D00028140020900000206000002088000020C4
:1028E000207806280DD2DFE800F00C0607030D0E55
:1028F000002001C510E000BFF8480068406A01C52B
:102900000AE000BF00BF019801F01AFF002030600C
:1029100001203870504608E700BF002038700AE0F8
:10292000002001C50E20387005E000BF002001C561
:102930000A20387000BF00BF0020E849096881F80C
:102940003000E649096881F83100E4490968C86146
:10295000E24909680862E14909684862019801F0A2
:10296000EFFE5046E1E67CB5002514E069462846B6
:1029700001F03AFD064666B9D94850F8254044B101
:10298000012C06D0D4E9020100EB810060640198BB
:10299000A064681CC5B21F2DE8DD7CBD002402E0E8
:1029A000C82001F0E7FDCF4800780028F8D0CE48D5
:1029B00000686421B0FBF1F0CB490860084600686C
:1029C00028B90020C9490870FF2001F04FFD00BF61
:1029D00001F0B2FE0446C6480068C64908600020FF
:1029E000C3490860204601F0ABFEC2480068BE49FA
:1029F0000968B0FBF1F0C0F16400BC49087001F057
:102A0000F2FEFFF7B0FF642001F0B4FDE0E700B58F
:102A100087B0032000218022B74BCDE90132CDE9F8
:102A200003104FF6FE701E23B44A0090AFF29300DD
:102A300001F0D4FA06AAB2A11E2001F043FC07B0AF
:102A400000BD002400BF01F077FE0446A8480068DE
:102A5000401CA7490860204601F072FE01F0C2FE4A
:102A6000F1E700B587B0032000218022A84BCDE913
:102A70000132CDE903104FF6FF701F23A54A0090E5
:102A8000AFF2410001F0AAFA06AAA3A11F2001F0AB
:102A900019FC07B000BD04E0002200F8012B4A1E1B
:102AA00091B20029F8DC704730B54FF4A0719E4810
:102AB000FFF7F1FF9C4B03F1200500240AE0002002
:102AC00018705D603F20D8730021197420332035C1
:102AD000601C84B2092CF2DB0020187058603F2083
:102AE000D8730021197490489049086030BD30B502
:102AF0004FF4FD618E48FFF7CEFF80217848FFF745
:102B0000CAFF8B4B03F15C0500240AE05D613F20A6
:102B100083F84C0000214D20C1545C335C35601CAF
:102B2000C4B2152CF2D3002058613F2083F84C002A
:102B300000214D20C15400207E4908607C487E4918
:102B4000086030BD00227D4B1A707D49002004E0F2
:102B5000002201F8012B421CD0B20428F8DB00222D
:102B6000784B1A70784B1A70784B1A605B4B1A606E
:102B700070470020764908607649087076490870E9
:102B800076490870764908707649086058490860A7
:102B9000584908605449086052490870704710B598
:102BA00001F01CFEFFF7E5FFFFF7CCFFFFF79FFFEB
:102BB000FFF77AFF00F0D2FEFFF753FFFFF727FF82
:102BC00001F00DFE01F060FE10BD6548007801289F
:102BD00008D160480078FF2804D25E480078401C85
:102BE0005C490870704710B500245D4800780128E2
:102BF00030D101F0A1FD044656480078002804DDDC
:102C000054480078401E5349087052480078F0B983
:102C100051480078D8B9FFF7EDFC4B480078494996
:102C20000978884213D02E484749097850F8210086
:102C30004649086008460068806B401C0968886344
:102C400048480068401C4749086001F091FD204653
:102C500001F076FD10BD10B5002441480078012830
:102C600011D101F069FD04463A48007840B93A486C
:102C70000078FF2804D238480078401C3649087094
:102C8000204601F05DFD10BD10B5002434480078E9
:102C9000012822D101F050FD04462F480078002879
:102CA00018DD2D480078401E2B4908700846007832
:102CB00060B92848007828B9204601F041FDFFF7A7
:102CC000A6FC0AE0204601F03BFD06E0204601F0AC
:102CD00037FD02E0204601F033FD10BD88000020E2
:102CE0002814002078000020700000206C000020D4
:102CF00084000020740000202810002024120020EE
:102D000075432F4F532D49492053746174000000BF
:102D1000281200202414002075432F4F532D4949B9
:102D20002049646C650000005C0E002064000020F7
:102D3000A8140020940000208C0000207D000020BA
:102D40007E0000207B0000207C00002090000020FE
:102D50009C000020790000207A00002083000020E1
:102D6000820000206000002010B5EE48007890B985
:102D7000FFF740FCEC480078EC490870EC48EA4961
:102D8000097850F82100EB49086008460068EA49D4
:102D9000086001F0D8FC10BD10B50024022001F03D
:102DA000E9FB01F0C9FC04460020E4490860204624
:102DB00001F0C6FC642001F0DDFB01F0BDFC04461F
:102DC000DE480068DE4908600120DE4908702046C0
:102DD00001F0B6FC10BD70B5002601F054FD01F005
:102DE000ABFC0646D8480068401CD749086030460E
:102DF00001F0A6FCCB480078012858D1D3480078D0
:102E000020B1012804D0022809D103E001250BE0FC
:102E1000002509E001250120CC49087004E00125C6
:102E20000020CA49087000BF00BF05B970BDC8487E
:102E3000046838E001F080FC0646E08D78B3E08D50
:102E4000401E0004000CE08529D194F8300010F0F9
:102E5000370F09D014F8300F20F037002070012010
:102E60006070A4F1300402E0002084F8310094F88E
:102E7000300010F0080F12D104F13404A078B549E5
:102E8000097840EA0100B34908702078B249085C2B
:102E9000617840EA010014F83419AF4A505464696B
:102EA000304601F04DFC94F832001F28C2D100BF1B
:102EB000BCE74FF48F707047704710B590F834201E
:102EC00001F10B039B5C90F83540A34301F10B0427
:102ED000A35423469B5C23B98B7A90F83640A343D6
:102EE0008B7210BD2DE9F04F05460F46904699466E
:102EF000A87A9A490E5C05F10B00805D11F800B0CC
:102F00000BEBC60000F0FF0A894850F82A40002069
:102F100004F1240460812760207B20EA08002073EC
:102F200084F80D90207BA4F1240410F0080F0DD13B
:102F300094F836008749097808438649087086481E
:102F4000805D94F83510084383498855294620460A
:102F5000FFF7B3FF206A20B12046216AFFF72CFB60
:102F6000E5615046BDE8F08F10B5734A1268D06134
:102F7000714A126892F8343000F10B02D25C6E4B49
:102F80001B6893F835301A436B4B1B6893F8344039
:102F900000F10B031A55827A674B1B6893F83630A1
:102FA0001A438272644A126892F834106A4A525C78
:102FB000614B1B6893F835309A43674B5A541A4655
:102FC000525C42B95C4A126892F83630614A127813
:102FD0009A43604B1A7010BD0023837200F10B01FD
:102FE000002204E0002301F8013B531CDAB2042A5A
:102FF000F8DB704705E011F8013B00F8013B531E78
:103000009AB2002AF7DC70472DE9F84F05460E46C4
:1030100017469846DDE90BABDDF8289000200090BC
:1030200001F08AFB00904E480468002C74D004F133
:10303000180454F8040C4A490860009801F080FB19
:1030400044F8186CA576002020766076E08244F87B
:1030500014AC44F80C9C44F8107C24F808BC24F808
:10306000068CE077E810207705F00700E076217FF6
:1030700001208840A077E17E012088406077002011
:103080006060A0602061E0602062A0626062E06237
:1030900020633F2084F83400A4F118044FF00001AD
:1030A0004FF04D000155204601F0ECFB204601F0A9
:1030B00097FB01F041FB00901D4840F82540244853
:1030C000006860610020A0612148006810B12048BC
:1030D000006884611E48046004F13404A0781D492E
:1030E000097840EA01001B49087020781A49085CF9
:1030F000617840EA010014F83419174A505419480D
:10310000007800F1010017490870009801F018FBE1
:103110000020BDE8F88FFFE7009801F011FB422086
:10312000F7E70000820000207C0000207B000020E8
:103130002814002090000020880000208400002037
:1031400070000020780000209C00002098000020E3
:10315000940000207D0000207E000020B07A00084E
:103160008C000020830000202DE9F05F04460F460C
:1031700091461E464FF0000B2078052804D0012010
:1031800030700020BDE8F09F09F0800ABAF1000F0E
:1031900004D029F080094FF0010801E04FF0000849
:1031A0000020307001F0C8FA8346B9F1000F2CD02E
:1031B000B9F1010F3BD0B9F1020F03D0B9F1030F00
:1031C00046D111E0208900EA0705BD4206D1B8F1D9
:1031D000010F05D12089A843208101E070203070C3
:1031E000584601F0ADFA3AE0208900EA070535B10A
:1031F000B8F1010F05D12089A843208101E070209A
:103200003070584601F09CFA29E0208927EA000531
:10321000BD4206D1B8F1010F05D120892843208194
:1032200001E070203070584601F08AFA17E02089DA
:1032300027EA000535B1B8F1010F05D120892843EF
:10324000208101E070203070584601F079FA06E0E4
:10325000584601F075FA00256F20307000BF00BF9E
:1032600028468FE72DE9F04106460D460027FB482A
:103270000078002804DD102028700020BDE8F081CF
:1032800001F05AFA0746F648046894B100684068AD
:10329000F3490860052020702681002060603F20EF
:1032A000A0720021E172384601F04AFA002028702D
:1032B00004E0384601F044FA722028702046DDE729
:1032C00030B501464A6808682AB9CC68606028B100
:1032D0000025456002E0106000B142608B68002567
:1032E0009D6230BDF0B506460F46B468002004F17B
:1032F0002C0460802780207920F0200020714FF07E
:10330000000060712079A4F12C04A8B904F1340400
:10331000A078D449097840EA0100D24908702078A1
:10332000D149085C617840EA010014F83419CE4AAA
:1033300050544FF0010500E000253046FFF7C0FF74
:103340002846F0BD2DE9F0470446894615464FF062
:10335000000AC2480078002804DD0F2028702046AB
:10336000BDE8F0872078052803D00120287020468A
:10337000F6E701F0E1F98246606808B1012700E054
:103380000027B9F1000F03D0B9F1010F40D11BE0C4
:103390009FB93F20A0720021E17200202070B04848
:1033A0000068606000202081AD480460504601F054
:1033B000C7F900202870002605E0504601F0C0F94A
:1033C0004920287026462AE0D4F8048005E0002130
:1033D0004046FFF787FFD8F80080B8F1000FF6D11C
:1033E0003F20A0720021E172002020709C480068FC
:1033F0006060002020819A480460504601F0A0F9E6
:10340000012F01D1FFF703F900202870002606E004
:10341000504601F095F907202870264600BF00BFEE
:1034200030469DE72DE9F04105460E46144600273B
:103430008A480078002804DD112020700020BDE8B3
:10344000F08101F079F907462878052806D038463A
:1034500001F076F9012020700020F0E705F10A0163
:103460003046FFF723F88046384601F069F900201E
:1034700020704046E3E72DE9F04105460F4614462B
:103480004FF0000875480078002803DD12202070F6
:10349000BDE8F08101F050F980462878052805D074
:1034A000404601F04DF901202070F1E73846FFF762
:1034B0003DF806460F2E05DD404601F041F9732028
:1034C0002070E5E7394605F10A00FEF7EFFF4046B8
:1034D00001F036F90020207000BFD9E7F0B514469E
:1034E000059E624F3F6897F8307047F02007DFF87D
:1034F0007CC1DCF800C08CF830700027DFF86CC1AC
:10350000DCF800C08CF83170584F3F68FE85574F8B
:103510003F68B9620C828B74544F3F688F60476874
:103520000F6000274F60C860456805B16960416061
:103530004E4F3F6897F834204B4FBF5CDFF82CC1EB
:10354000DCF800C09CF835C027EA0C07DFF818C18A
:103550000CF802706746BF5C5FB9444F3F6897F84C
:1035600036C0404F3F7827EA0C07DFF8F8C08CF8E8
:103570000070F0BD2DE9F04F89B005460F46914629
:103580009A46129E0020029034480078002805DDFB
:1035900002203070002009B0BDE8F08F3448007878
:1035A000002803DD0D2030700020F4E7287805287E
:1035B00003D0012030700020EDE709F0800BBBF153
:1035C000000F04D029F080094FF0010801E04FF00E
:1035D000000801F0B1F80290B9F1000F56D0B9F12E
:1035E000010F76D0B9F1020F03D0B9F1030F6FD1FB
:1035F00020E0288900EA0704BC420FD1B8F1010F8E
:1036000002D12889A043288118480068848502983F
:1036100001F096F8002030702046BCE74B463A4651
:1036200004A92846CDF800A0FFF758FF029801F042
:1036300087F876E0288900EA0704DCB1B8F1010FC9
:1036400002D12889A043288108480068848502980F
:1036500001F076F80020307020469CE779000020C9
:10366000680000207D0000207E00002088000020EF
:103670007A0000204B463A4604A92846CDF800A01F
:10368000FFF72CFF029801F05BF84AE0288927EA4F
:103690000004BC420FD1B8F1010F02D128892043A8
:1036A0002881BF4800688485029801F049F800200D
:1036B000307020466FE74B463A4604A92846CDF8BD
:1036C00000A0FFF70BFF029801F03AF829E000E0B4
:1036D0001FE0288927EA00047CB1B8F1010F02D16C
:1036E000288920432881AE4800688485029801F02B
:1036F00027F80020307020464DE74B463A4604A993
:103700002846CDF800A0FFF7E9FE029801F018F86E
:1037100007E0029801F014F800246F203070204672
:1037200039E700BFFEF773FF01F006F802909C48EE
:10373000006890F8310020B39948006890F8310093
:10374000039000209649096881F8310004A8FFF72A
:10375000B7FD00209249096881F83000029800F016
:10376000EFFF00240398012805D0022802D10E2083
:10377000307003E000BF0A20307000BF00BF204659
:1037800009E787480068848DB8F1010F1ED1B9F1AF
:10379000000F0ED0B9F1010F0CD0B9F1020F03D018
:1037A000B9F1030F0AD100E000BF2889A0432881A6
:1037B0000BE000BF28892043288106E0029800F032
:1037C000BFFF6F2030700020E5E600BF029800F0D8
:1037D000B7FF002030702046DDE670B5002500F010
:1037E000ABFF05466E480068848D284600F0A8FFB0
:1037F000204670BD2DE9FC5F0446894692461E4670
:10380000002000902078052804D00120307000208E
:10381000BDE8FC9F00F090FF0090BAF1000F03D0CC
:10382000BAF1010F0AD104E0208920EA09002081C1
:103830000BE0208940EA0900208106E0009800F0B2
:103840007FFF712030700020E2E700BF4FF0000BD7
:10385000656855E0A87C40B3012838D0022802D022
:10386000032844D111E02089298A00EA0107288A27
:10387000B84209D139462846FFF734FD8046B8F1F1
:10388000010F01D14FF0010B38E02089298A00EAAD
:1038900001074FB139462846FFF724FD8046B8F1AD
:1038A000010F01D14FF0010B28E0288A218920EA7D
:1038B0000107288AB84209D139462846FFF712FD88
:1038C0008046B8F1010F01D14FF0010B16E0288AB4
:1038D000218920EA01074FB139462846FFF702FD4A
:1038E0008046B8F1010F01D14FF0010B06E00098BE
:1038F00000F026FF6F203070002089E700BF2D68A0
:10390000002DA7D1009800F01BFFBBF1010F01D1E2
:10391000FEF77DFE00F010FF0090208901900098D6
:1039200000F00EFF00203070019871E72DE9F041A2
:1039300004460D4600272078052804D00120287071
:103940000020BDE8F08100F0F7FE074626893846E2
:1039500000F0F6FE002028703046F2E770B58C21AA
:103960001048FFF798F80F4C04F11C0600250AE0F8
:103970000020207066603F20A0720021E1721C349C
:103980001C36681C85B2042DF2DB002020706060BC
:103990003F20A0720021E17202480349086070BD17
:1039A000880000209C0F00206800002070B50446AD
:1039B00000262078012801D0002070BD00F0BCFE58
:1039C0000646656800206060304600F0B9FE284673
:1039D000F3E770B505460026ED480078002801DDC4
:1039E000002070BD00F0A8FE0646EA4804680068A2
:1039F00020B1E84800684068E6490860304600F0B9
:103A00009FFE5CB1012020700020208165603F2076
:103A1000E073002121742046FFF7DEFA2046E0E73C
:103A20002DE9F0470446884615464FF000092078F6
:103A3000012804D0012028702046BDE8F087D44832
:103A40000078002803DD0F2028702046F5E700F0FD
:103A500073FE8146A07A08B1012700E00027B8F183
:103A6000000F03D0B8F1010F3ED11BE09FB93F20FA
:103A7000E0730021217400202070C6480068606057
:103A800000202081C3480460484600F059FE002011
:103A90002870002605E0484600F052FE49202870B4
:103AA000264628E005E00023022219462046FFF7BB
:103AB00019FAA07A0028F6D13F20E0730021217482
:103AC00000202070B3480068606000202081B14869
:103AD0000460484600F034FE012F01D1FEF797FD47
:103AE00000202870002606E0484600F029FE072046
:103AF0002870264600BF00BF30469EE72DE9F04102
:103B000005460F4614464FF000082878012804D0D7
:103B1000012020700020BDE8F0819D480078002839
:103B200003DD022020700020F5E79B480078002884
:103B300003DD0D2020700020EDE700F0FDFD804644
:103B40006E6846B100206860404600F0F9FD002034
:103B500020703046DFE79148006890F8300040F070
:103B600002008E49096881F8300000208B490968FD
:103B700081F8310089480068C7852846FFF7F4F9C5
:103B8000404600F0DDFDFEF742FD00F0D5FD804629
:103B90008248006890F8310020B101280DD0022839
:103BA0000AD105E07D480068466A002020700DE0DB
:103BB00000260E20207009E000BF294677480068E3
:103BC000FFF77BF900260A20207000BF00BF00200D
:103BD0007249096881F830007049096881F831003C
:103BE0006E490968C8616D49096808626B490968CE
:103BF0004862404600F0A4FD30468CE72DE9F041D4
:103C000004460F4615464FF000082078012804D0DE
:103C1000012028700020BDE8F08100F08DFD804675
:103C2000A07A20B300267FB1012F0CD107E0022338
:103C30001A4600212046FFF755F9701CC6B2A07A3B
:103C40000028F4D109E000BF02231A4600212046D3
:103C5000FFF748F9701CC6B200BF00BF404600F035
:103C60006FFDFEF7D4FC0E2028703046D3E74046A7
:103C700000F066FD0020287000BFCCE770B5044658
:103C80000D4600262078012801D0012070BD00F0EB
:103C900053FD0646A07A60B1002302222946204641
:103CA000FFF720F9304600F04BFDFEF7B0FC002096
:103CB000ECE7606820B1304600F042FD1420E5E7F3
:103CC0006560304600F03CFD0020DFE72DE9F04163
:103CD00004460E46154600272078012802D0012010
:103CE000BDE8F08100F028FD0746A07AE8B115F0A4
:103CF000010F0AD005E00023022231462046FFF7DB
:103D0000F1F8A07A0028F6D105E00023022231461E
:103D10002046FFF7E7F8384600F012FD15F0040FD3
:103D200001D1FEF774FC0020DAE7606820B1384664
:103D300000F006FD1420D3E76660384600F000FD71
:103D40000020CDE72DE9F04704460D464FF000096D
:103D50002078012802D00120BDE8F08700F0ECFCBB
:103D60008146A07A287204F10B0705F104080026A9
:103D700005E017F8010B08F8010B701CC6B2042E01
:103D8000F7DB60682860484600F0DAFC0020E3E7D3
:103D900079000020640000207A00002088000020C4
:103DA0002DE9F34F85B088460020019000F0C4FC57
:103DB0000190F74850F8280030B1019800F0C0FC9D
:103DC000282007B0BDE8F08F0598FF2804D1F148FE
:103DD000006890F832000590ED49059851F82050A0
:103DE00025B9019800F0ACFC2920EAE7012D04D1A7
:103DF000019800F0A5FC4320E3E74FEAE80708F04C
:103E0000070003900120B84000F0FF09012103984A
:103E1000814001F0FF0A0021DD4A059842F8201098
:103E2000104640F8285095F8346095F83600029016
:103E300095F835B0D848805D10EA0B0F1AD0D648F7
:103E4000805D20EA0B00D44988550846805D28B97A
:103E5000D248007802998843D0490870CF4800784A
:103E600040EA0900CD490870CB48C05D40EA0A002D
:103E7000C949C855EC69D4B104F10B00805D20EA52
:103E80000B0004F10B0188550846805D18B9A07A33
:103E900002998843A072A07A40EA0900A07204F156
:103EA0000B00C05D40EA0A0004F10B01C855286A06
:103EB00030B3286A0490049804681FE004F10B00F2
:103EC000805D20EA0B0004F10B0188550846805DF7
:103ED00018B9A07A02998843A072A07A40EA090032
:103EE000A07204F10B00C05D40EA0A0004F10B016E
:103EF000C8550498001D049004980468002CDDD176
:103F000085F8328085F83470039885F8330085F899
:103F1000369085F835A0019800F012FCA048007892
:103F2000012801D1FEF773FB00204AE72DE9FE4F7F
:103F300006460F4690461C464FF0000900F0FCFB79
:103F4000814698480078002805DD484600F0F8FBD7
:103F50003C20BDE8FE8F8E4850F8240060BB012055
:103F60008B4941F82400484600F0EAFB0023424612
:103F70003946304600F038FC82460020009001901F
:103F800003460246514602902046FFF73DF805469B
:103F900035B98348007801280CD1FEF738FB09E0D9
:103FA00000F0CAFB81460020794941F824004846C8
:103FB00000F0C6FB2846CCE7484600F0C1FB2820AD
:103FC000C7E712F0010F08D012F0020F05D002E08F
:103FD000491E002308C00029FAD170472DE9F04F8F
:103FE00085B081468A4693461C46DDE90F78129DCE
:103FF0000020039000F0A0FB03906A48007800289E
:1040000006DD039800F09CFB3C2005B0BDE8F08F76
:104010005F4850F8240088BB01205D4941F8240026
:10402000039800F08DFB2A4641463846FFF7C9FF4A
:104030002B465A465146484600F0D6FB049011984C
:10404000CDE9008002953A4620460E9B0499FEF782
:10405000DBFF064636B95248007801280CD1FEF73E
:10406000D6FA09E000F068FB03900020484941F8C7
:104070002400039800F064FB3046C6E7FFE703988E
:1040800000F05EFB2820C0E72DE9F041054600273F
:1040900044480078002802DD4020BDE8F0811F2D53
:1040A00001D13E20F9E700F047FB0746FF2D03D181
:1040B0003848006890F83250354850F8254024B907
:1040C000384600F03DFB4320E7E7012C04D1384699
:1040D00000F036FB3D20E0E714F8340F2E49085C71
:1040E0006178884321782C4A505414F834091146D9
:1040F000085C30B994F8361028480078884327497E
:104100000870E06918B12046E169FEF7D6FE206A22
:1041100018B12046216AFEF74FFAA66A16B130465A
:10412000FFF7CEF80020E08584F8300084F83100F5
:104130001D480078FF2804D21B480078401C1A490B
:104140000870384600F0FCFAFEF7B6FE00F0F4FA0C
:10415000074615480078002804DD13480078401E03
:1041600011490870204600F03CFB10480078401EC2
:104170000E4908700020064941F82500A069C8B919
:104180000020616988610A496069086018E00000E0
:1041900028140020880000207E0000207D000020E0
:1041A00082000020790000207A0000208300002097
:1041B00094000020D4E905014861D4E90510886124
:1041C000E54800686061E44804603F2084F84C00E2
:1041D00000214D200155384600F0B2FADF48007842
:1041E000012801D1FEF713FA002056E72DE9F0412E
:1041F000044600271F2C02D13E20BDE8F081FF2C91
:104200000BD100F099FA0746D548006890F837605E
:10421000384600F095FA3046EFE700F08DFA074691
:10422000D04850F8245025B9384600F089FA432088
:10423000E3E7012D04D1384600F082FA3D20DCE7A7
:104240003F2085F83700384600F07AFA0020D4E79E
:104250002DE9F04706460F4614464FF00008C248C5
:104260000078002804DD112020700020BDE8F087D0
:1042700000F062FA8046FF2E03D1B948006890F83A
:104280003260B84850F8265035B9404600F058FA28
:10429000432020700020E9E7012D06D1404600F0C0
:1042A0004FFA432020700020E0E705F14C0138462A
:1042B000FEF7FCF88146404600F042FA00202070EC
:1042C0004846D3E72DE9F0470646884614464FF0A6
:1042D0000009A5480078002803DD12202070BDE801
:1042E000F08700F029FA8146FF2E03D19C48006830
:1042F00090F832609B4850F826502DB9484600F09F
:104300001FFA43202070EAE7012D05D1484600F04E
:1043100017FA43202070E2E74046FEF707F9074608
:104320000F2F05DD484600F00BFA41202070D6E73C
:10433000414605F14C00FEF7B9F8484600F000FA96
:104340000020207000BFCAE770B50546002600F0C7
:10435000F3F90646834850F8254024B9304600F06A
:10436000EFF9462070BD012C04D1304600F0E8F989
:104370004320F7E794F8300010F0080F2FD014F81E
:10438000300F20F00800207014F8300910BBE08DC9
:10439000E0B904F13404A0787449097840EA0100D6
:1043A0007249087020787249085C617840EA01001F
:1043B00014F834196E4A5054304600F0C1F9674879
:1043C0000078012809D1FEF722F906E0304600F016
:1043D000B7F902E0304600F0B3F90020C2E73046FA
:1043E00000F0AEF94420BDE72DE9F04707460D4641
:1043F0004FF0000A00202860686000F09DF98246B6
:10440000FF2F03D15648006890F83270554850F895
:1044100027402CB9504600F093F94320BDE8F087BF
:10442000012C04D1504600F08BF94320F6E7208A96
:1044300010F0010F04D1504600F082F94520EDE75D
:104440000026D4F80C90D4F80880504600F078F993
:1044500000E0761C58F8041B0029FAD0B000286050
:10446000A9EB0600800068600020D7E72DE9F04145
:1044700005464FF0000800F05FF98046FF2D05D19A
:104480003748006890F83250012608E03448006848
:1044900090F83200A84201D1012600E00026314800
:1044A00050F825402CB9404600F04AF94820BDE8B4
:1044B000F081012C04D1404600F042F94320F6E798
:1044C00094F834702A48C05D94F835108843284920
:1044D000C8550846C05D30B994F8361023480078B6
:1044E00088432249087094F8300040F0080084F8AE
:1044F0003000404600F024F9012E01D1FEF787F884
:104500000020D4E72DE9F04105460E46002700F0D3
:1045100013F90746FF2D03D11148006890F8325077
:10452000104850F825402CB9384600F009F92920E8
:10453000BDE8F081012C04D1384600F001F9432098
:10454000F6E75C2221463046FEF754FD384600F07F
:10455000F7F80020ECE700008C000020820000202B
:104560008800002028140020790000207D00002011
:104570007E00002070B505460026694800780028B6
:1045800000DD70BD002D23DD00F0D6F8064665483D
:10459000006890F834406448005D6249096891F809
:1045A00035108843604908550846005D40B95D48AC
:1045B000006890F836105D48007888435B490870C1
:1045C00058480068C585304600F0BAF8FEF71FF875
:1045D00000BFD6E72DE9F0470746884691461D46BD
:1045E0004F480078002802DD5520BDE8F0874FF4E1
:1045F0007A7068434FF47A71B0FBF1F14FF4616067
:104600007843C8EB081200EB8200484400EB4002FC
:10461000C2EBC01001EBC004260CA4B22046FFF789
:10462000A9FF09E04FF40040FFF7A4FF4FF400405A
:10463000FFF7A0FF701E86B2002EF3DC0020D4E747
:1046400070B5054600261F2D01DB2A2070BD00F045
:1046500073F80646364850F8254024B9304600F035
:104660006FF84320F2E7012C04D1304600F068F8DF
:104670004320EBE7E08D20B9304600F061F8502090
:10468000E4E70020E08594F8300010F0370F09D0FF
:1046900014F8300F20F03700207001206070A4F172
:1046A000300402E0002084F8310094F8300010F06B
:1046B000080F18D104F13404A0781C49097840EAA5
:1046C00001001A49087020781749085C617840EAAF
:1046D000010014F83419144A5054304600F030F8F0
:1046E000FDF795FF02E0304600F02AF80020ADE724
:1046F00070B5002500F020F805460E4804682846ED
:1047000000F01EF8204670BD70B50446002500F08C
:1047100013F8054607480460284600F011F870BDFC
:1047200079000020880000207E0000207D0000200D
:10473000281400209C000020EFF3108072B6704710
:1047400080F3108870471D484FF0FF010170002072
:1047500080F309881A48012101701A484FF08051EE
:10476000016062B6FEE717484FF080510160704764
:1047700014484FF080510160704772B6EFF3098022
:1047800028B1203880E8F00F0F490968086000B5AB
:104790000E4880475DF804EB0D480E490A78027018
:1047A00009480D490A680260106890E8F00F20304F
:1047B00080F309884EF0040E62B6704722ED00E0E7
:1047C0008200002004ED00E08800002083480008FB
:1047D0007B0000207C000020900000207047704784
:1047E000704770477047704770B5044610464FF0E9
:1047F00080750560051F28462C606FF00106051FB7
:1048000028462E604FF01236051F28462E604FF0C6
:104810000336051F28462E604FF00236051F284636
:104820002E607610051F28462E60051F2846296039
:104830004FF01136051F28462E604FF01036051F29
:1048400028462E604FF00936051F28462E604FF08F
:104850000836051F28462E604FF00736051F2846EC
:104860002E604FF00636051F28462E604FF00536A5
:10487000051F28462E604FF00436051F28462E607F
:1048800070BD704770477047174818481848194856
:1048900019481A481A481B481B481C481C481D4800
:1048A0001D481E481E481F481F48204820482148D0
:1048B00021482248224823482348244824482548A0
:1048C0002548264826482748274828482848294870
:1048D00029482A482A482B482B482C482C482D4840
:1048E0002D4800BF70470000B07B0008B47B000873
:1048F000B87B0008BA7B0008BC7B0008BE7B0008C0
:10490000C07B0008C27B0008C47B0008C67B00088F
:10491000C87B0008CA7B0008CC7B0008CE7B00085F
:10492000D07B0008D27B0008D47B0008D67B00082F
:10493000D87B0008DA7B0008DC7B0008DE7B0008FF
:10494000E07B0008E27B0008E47B0008E67B0008CF
:10495000E87B0008EA7B0008EC7B0008EE7B00089F
:10496000F07B0008F27B0008F47B0008F67B00086F
:10497000F87B0008FA7B0008FC7B0008FE7B00083F
:10498000007C0008027C0008047C0008067C00080B
:10499000087C00080A7C00080C7C0008016082800A
:1049A00070472DE9F04104460F4616461D462888FB
:1049B000A188884214DA2A883168206802F024FD30
:1049C0002988206808442060A0882988401AA0808F
:1049D000298830680844306000202880BDE8F081D4
:1049E0002888A188884212D12A883168206802F07C
:1049F0000BFD29882068084420600020A0802988B9
:104A0000306808443060002028800120E6E7A28852
:104A10003168206802F0F8FCA18820680844206012
:104A20002888A188401A2880A1883068084430600E
:104A30000020A0800120D1E730B5044613E01068C3
:104A40000578206805701068401C10602068401CC4
:104A500020601888401E1880A088401EA0808D42CB
:104A600001D1022030BDA088002802DD188800286E
:104A7000E5DC188808B90020F4E70BE01068057839
:104A80001888401E18801068401C10608D4201D1AB
:104A90000320E7E718880028F0DC0120E2E710B5E2
:104AA000044694F82000062804D1C148007810F08C
:104AB000040F15D0208ABF490968498A884206DD5B
:104AC000BC4A1268518A606801F01FFD03E0218A28
:104AD000606801F01AFD062084F82000012010BD56
:104AE0000020FCE7014691F82000062827D1B048B5
:104AF000007810F0010F22D0AD48007820F00100BE
:104B0000AB4A1070088AAB4A1268528A90420CDD98
:104B1000088AA84A1268528A801A0882A54A4868F8
:104B20001268528A1044486005E00A8A48681044B6
:104B3000486000200882012081F820007047002092
:104B4000FCE72DE9F04104460E4615460127608832
:104B500010B1D02825D123E02DB900BF00206080FE
:104B60000120BDE8F08166602582002084F82000E5
:104B70000FE000BFD02060802046FFF7B3FF8046E3
:104B80002046FFF78CFF18EA000F01D10020E8E76C
:104B900000BF208A0028ECDC002084F8200000E020
:104BA000EAE700BF0027002060800220D9E72DE956
:104BB000F04104460D4616460127608810B1EF28E3
:104BC00030D12EE02DB900BF002060800120BDE86B
:104BD000F0813046A8472082774800686060002056
:104BE00084F8200000BF7248007810F0040F01D054
:104BF0003046A84700BFEF2060802046FFF772FFD5
:104C000080462046FFF74BFF18EA000F01D1002035
:104C1000DDE700BF208A0028E5DC002084F82000C2
:104C200000E0EAE700BF0027002060800220CEE716
:104C30000146088BCA69101A80B270470146488A3B
:104C4000002801DD0120704791F82000022804D1DE
:104C5000032081F820000020F5E75548007810F087
:104C6000020F01D00120EEE70020ECE770B504460A
:104C70000D460126608818B1B0F58E7F35D133E03E
:104C8000E06982B204F11400E168FFF787FE00BF1B
:104C9000608A98B900BF4FF48E7060802046FFF79D
:104CA000CDFF08B9002070BD00BF022084F82000AD
:104CB00041480068A06041480088608204F1120306
:104CC00004F108022946981CFFF7B6FE10F0020F07
:104CD000DED02046FFF7ACFF28B9002084F8200082
:104CE00000BF6080DFE700E0D8E700BF00260020BB
:104CF00060800220D7E770B504460125608820B1A6
:104D0000A0F58070373838D136E0E06982B204F11E
:104D10001400E168FFF742FE00BF608AB0B900BF2F
:104D200040F2371060802046FFF788FF08B9002066
:104D300070BD00BF22A002F041FC022084F82000D8
:104D40001D480068A0601D4800886082E06981B24B
:104D500004F1120304F10802981CFFF722FE012857
:104D6000DBD12046FFF764FF28B9002084F820003B
:104D700000BF6080DCE700E0D5E700BF0025002031
:104D800060800220D4E770B504460E461546002028
:104D900084F820006082E660E561AAB2314604F141
:104DA0001400FFF7FBFD00202080608070BD000034
:104DB000C0000020C4000020B4000020BC0000207F
:104DC00057616974656420666F72206E65776461EF
:104DD00074610A0070B504460D466560FCF7D8FFA3
:104DE000206070BDD0E9001211440160704710B519
:104DF0000446FCF7CDFF206010BD10B50446FCF75B
:104E0000C7FF2168401A6168884201DB012010BD9C
:104E10000020FCE7FB4908807047C2780A44FA4B3F
:104E2000DA70827802EB21229A7042785A70027806
:104E30001A701A469278B2EB212F0ADA1A46527883
:104E4000521C5A701A4652781AB91A461278521CD5
:104E50001A70ED4AD278CBB29A4212DAEA4A9278C4
:104E6000521CE94B9A701A46927852B91A465278F7
:104E7000521C5A701A4652781AB91A461278521CA5
:104E80001A707047F0B50B46144619461E19751E68
:104E90000BE04E780F7806EB0726B2B28618B0B258
:104EA000904201DA461CB0B2891CA942F1D3A94252
:104EB0000AD10E78002707EB0626B2B28618B0B2E8
:104EC000904201DA461CB0B2F0BD0146080240EA49
:104ED000212080B2704770B504460D462A4621460F
:104EE0000020FFF7CFFF0646FFF7EFFF70BD10B5BC
:104EF0001422C6490020FFF7C5FF044614B94FF637
:104F0000FF7010BD2046FFF7E0FFFAE770B50446DA
:104F1000BE480E38417C007C01EB0020143885B27D
:104F2000281986B20822B9490C313046FFF7AAFF8A
:104F300006462A46B54914313046FFF7A3FF064618
:104F400016B94FF6FF7070BD3046FFF7BEFFFAE7A7
:104F500010B50620FFF7DAFF10BD10B51120FFF7DE
:104F6000D5FF10BD0020AA4908700AE00020A94919
:104F7000A74A127821F81200A5480078401CA449DD
:104F80000870A34800780A28F0DB0020A0490870C8
:104F90000DE000209E49097801EB81019E4A02EB59
:104FA000C10148769A480078401C99490870984891
:104FB00000780A28EDDB4FF48060984908800020D3
:104FC000934908700BE000219548914A127800EB54
:104FD000021081808E480078401C8D4908708C48F2
:104FE00000780A28EFDB704730B504460D4600BF55
:104FF0008A480088401C8949088008460088B0F526
:10500000FA4F02DB4FF4805008800020804908707E
:1050100015E07F48007800EB80007F4901EBC0027B
:10502000507E38B17D480088FFF74FFF9188884255
:1050300000D1DDE776480078401C75490870744857
:1050400000780A28E5DB002200207149087018E08A
:105050006F48007800EB80006F4901EBC003587E79
:1050600008B91A4611E0587E072805D11AB1987E72
:10507000917E884200DD1A4665480078401C6449EC
:105080000870634800780A28E2DB00BF0AB90020F4
:1050900030BD022050766348007810736148417833
:1050A000517381789173C178D17340F2A6505082C8
:1050B0009082012010820020D0760120907603207B
:1050C0001076002090751020D07554480088FFF7A6
:1050D000FCFE9080D58000BF2088108060885080C2
:1050E00000BF1046D4E730B503460C4600BF4B481E
:1050F0000088401C4949088008460088B0F5FA4FEE
:1051000002DB4FF48050088000204149087011E014
:1051100042480088FFF7D9FE41493D4D2D7801EB0B
:1051200005118988884200D1E1E739480078401CA0
:1051300037490870364800780A28E9DB0022002049
:105140003349087011E036483149097800EB011005
:10515000808828B932482E49097800EB011208E00E
:105160002B480078401C2A490870294800780A28F2
:10517000E9DB00BF0AB9002030BD284800880002E2
:105180002649098840EA21209080D48013B9002064
:10519000106005E000BF188810805888508000BF5C
:1051A000402010721046E7E70021194A117012E002
:1051B0001849174A127831F81210814206D100219D
:1051C000144A134B1B7822F81310704710490978C2
:1051D000491C0F4A11700E4909780A29E8DB00BF03
:1051E000F3E700210A4A117023E00A49084A1278BD
:1051F00031F81210C1B90749054A127821F8120096
:1052000070470000CC000020D40000209E1C00202D
:10521000D80000200024002070220020D2000020AE
:1052200014240020CE000020FC490978491CFB4AC8
:105230001170FA4909780A29D7DB00BFE0E710B5F9
:1052400004462146F64800680830FFF7E6FDF548B9
:105250000078F34909680872F2484178F04800681C
:105260004172F0488178EE4800688172ED48C1785B
:10527000EB480068C17210BD70B50546E848046887
:10528000042D00D1EEE2E848E8490860E8490860EA
:10529000032D0FD1607E00F00F00032808D1208A73
:1052A00030B90820E3490870FDF720F800F0A5BFE9
:1052B00001F024B9022D71D1DF48C078401C10F0F4
:1052C000FF00DD49C87011D108468078401C10F0FD
:1052D000FF0088700AD108464078401C10F0FF009B
:1052E000487003D108460078401C08700020D3495C
:1052F0000880D3490880607E072802D0607E052898
:1053000008D1A07E401CA076A07E782862D1002023
:1053100060765FE0607E00285CD0208A00284ED056
:10532000A17E481EA076002954D1E07E082808D02E
:10533000607E022802D0607E012810D1E07E052820
:105340000DD1002060768020BA490870FCF7CEFFAE
:105350001421B548363880F82F1001F025B8E07ECA
:10536000042801DD042000E0E07E03218140A176D5
:10537000E07E401CE076B348C08C401C81B2B1484E
:10538000C184607E00F00F00092823D2DFE800F01E
:105390002205070D142215221600F3E31BE000215D
:1053A000A148363880F82F10EDE30420A149087099
:1053B000FCF79CFF00F061BF00BF00BFF4E3607E1C
:1053C00000F00F00032805D108209A490870FCF767
:1053D0008DFF6BE76CE7052D18D19B48006880882E
:1053E00098B100208E4908608F480C388F490860BA
:1053F0008F49086000209249088090490880082061
:105400008C490870FCF752FF2CE251E78D48408828
:10541000401C8C49488084483638807B45280BD016
:1054200008460088401C08800846C088401CC88088
:1054300086A0FCF76FFF3BE77B483638417C007C59
:1054400001EB00207D490988884208DC764836381F
:10545000417C007C01EB00207849088003E085A0B6
:10546000FCF758FF24E770483638007D10F03F0FF6
:1054700003D16D483638407D60B172480088401CC9
:105480007049088008468089401C888185A0FCF707
:1054900041FF0DE78948008889490988884205D17C
:1054A0008648408886494988884213D05E48363805
:1054B000C08B82490988884206D15B483638008C07
:1054C0007E494988884205D05E480088401C5D4975
:1054D0000880EDE6FFF70BFDA0F57F41FF390CD00A
:1054E00058480088401C574908800846C089401C1D
:1054F000C88174A0FCF70EFFDAE64B483638C07D51
:10550000062800D107E248483638C07D112800D16E
:1055100062E045483638C07D01280CD049480088F3
:10552000401C484908800846008A401C08826AA03E
:10553000FCF7F0FEBCE64348808A401C81B241483B
:1055400081823948363890F8220008280ED03D482C
:10555000408A401C3B4948820846008B401C81B26F
:105560003848018363A0FCF7D5FEA1E600212E4850
:10557000363880F82210808C4FF6F771884208DBAD
:1055800029483638808C093081B2274836388184E2
:1055900007E025483638808C083081B222483638FA
:1055A000818400BF20483638418BC183818B0184C0
:1055B00000BF00BF414801881B48363841833F483F
:1055C000418819483638818300BF1E48C08A401C74
:1055D00081B21C48C182FDE3184800881C38174975
:1055E000088011480C38114908602A38008DA0B194
:1055F000FFF7B3FCA0F57F41FF390ED01148808D35
:10560000401C104988850846408E401C81B20D48D8
:1056100041863EA0FCF77EFE4AE681E0D8000020ED
:10562000C4000020D4000020C61C0020B4000020CC
:10563000B8000020C0000020CE000020BC000020E8
:10564000BE000020B4240020C800002069703A2069
:10565000696E76616C69642076657273696F6E201D
:105660006F7220686561646572206C656E6774682E
:105670002E00000069703A207061636B65742073BE
:10568000686F72746572207468616E207265706FE5
:105690007274656420696E20495020686561646594
:1056A000722E000069703A20667261676D656E74D3
:1056B0002064726F707065642E000000A8000020E6
:1056C000127C000869703A20626164206368656337
:1056D0006B73756D2E00000069703A206E656974F9
:1056E00068657220746370206E6F722069636D70DC
:1056F0002E00000069636D703A206E6F742069633C
:105700006D70206563686F2E000000007564703A4C
:105710002062616420636865636B73756D2E0000A1
:10572000F7480068D8B1F6480068C188F548408C51
:10573000814205D1F2480168F2481A3081420ED008
:105740000020EF4909688880EE48408CEC490968E0
:10575000C880EB480168EB480E30C0680860E84834
:105760000068C08850B9E748408CE5490968C8809E
:10577000E3480168E3480E30C0680860E04800680C
:1057800048B1E14800880002DF49098840EA212049
:10579000DB4909688880DD48D949086046E0D84877
:1057A00000688088E0B3D748808CD549096889882B
:1057B000884236D1D2480068C08830B1D148408C88
:1057C000CF490968C98888422BD1CD480068008834
:1057D000CF490988884206D1C94800684088CC4929
:1057E000498888421BD0C64800680088C949098892
:1057F000884206D1C24800684088C6494988884224
:105800000DD0C048408BBE4909680988884208D13C
:10581000BC48808BBA4909684988884201D10FE0A9
:10582000FFE7B74800681030B5490860B448016820
:10583000B648A0308142B2D3B7A0FCF76BFD37E584
:105840000020BE4908600220BD490870AD482A30DA
:10585000BC490860BC4908600020BC490880FCF7CE
:1058600025FD00BFB948008800B921E5B748008888
:105870001C30B7490880084600880112A14801740D
:10588000B3480088C1B29F4841749D480068017ABE
:105890009C4881751121C175AC480088083001020F
:1058A000AA480088083080B241EA202081B2954899
:1058B000C184002101859248006881889148418413
:1058C0008F480068C1888F48818400BFA148018843
:1058D0008C4841839F4841888A48818300BF00BF2C
:1058E0008748006801888748C183854800684188E7
:1058F0008448018400BF363092490860FFF72DFBD1
:10590000C04381B27F480185008D18B94FF6FF7101
:105910007C480185EFE39048808B401C81B28E4823
:105920008183FFF715FBA0F57F41FF390ED08A4830
:10593000408B401C884948830846008C401C81B23B
:105940008548018485A0FCF7E5FCB1E4884C17E0AC
:10595000607EA0B16B48808CA18888420FD16948D5
:10596000408CE18888420AD16648408B2188884271
:1059700005D16448808B6188884200D101E22834D7
:105980007C488442E4D95F4890F82F0000F03F0043
:10599000022800D021E05B48808C774908800020F5
:1059A000764908700EE076487449097830F811009D
:1059B00071490988884200D19DE070480078401CF8
:1059C0006E4908706D4800780A28ECDB6248408D0B
:1059D000401C81B26048418500BF4A4890F82F00C2
:1059E00010F0040F00D063E45B48808C401C81B24F
:1059F000594881841421434880F82F1028205449A5
:105A0000088050213F4880F82E1090F829005B490B
:105A100008703C4890F82D1080F8291057480178FC
:105A2000384880F82D1090F82800544908703548FF
:105A300090F82C1080F8281050480178314880F8F0
:105A40002C1090F827004D4908702E4890F82B1024
:105A500080F82710494801782A4880F82B1090F8E0
:105A6000260046490870274890F82A1080F826102A
:105A700042480178234880F82A1090F82D00401CF5
:105A800010F0FF011F4880F82D1018D190F82C005D
:105A9000401C10F0FF011B4880F82C100FD190F82B
:105AA0002B00401C10F0FF01164880F82B1006D187
:105AB00090F82A00401CC1B2124880F82A10114800
:105AC000408C2D4908800F48818C41842A480188E8
:105AD0000C48818400BF418BC183818B018400BF4E
