:020000040800F2
:1000000050D20020050300084B0300084D030008F0
:1000100051030008550300085903000800000000C0
:100020000000000000000000000000005D03000868
:100030005F030008000000001B03000863030008C2
:100040001F0300081F0300081F0300081F03000808
:100050001F0300081F0300081F0300081F030008F8
:100060001F0300081F0300086F0300081F03000898
:100070001F0300081F0300081F0300081F030008D8
:100080001F0300081F0300081F0300086B0300087C
:100090006D0300081F0300081F0300081F0300086A
:1000A0001F0300081F0300081F0300081F030008A8
:1000B0001F0300081F0300081F0300081F03000898
:1000C0001F0300081F0300081F0300081F03000888
:1000D0001F030008EF2800081D2900081F29000839
:1000E0001F0300081F0300081F0300081F03000868
:1000F0001F0300081F0300081F0300081F03000858
:100100001F0300081F0300081F0300081F03000847
:100110001F0300081F030008678200081F03000870
:100120001F0300081F0300081F0300081F03000827
:1001300000F002F800F094F80AA090E8000C824465
:100140008344AAF10107DA4501D100F089F8AFF242
:10015000090EBAE80F0013F0010F18BFFB1A43F0A5
:10016000010318478CA40000ACA40000103A24BF7F
:1001700078C878C1FAD8520724BF30C830C144BF0C
:1001800004680C607047000000230024002500264E
:10019000103A28BF78C1FBD8520728BF30C148BFEA
:1001A0000B6070476E2908F0A187702908F08984D8
:1001B00066290AF0378165290AF0348167290AF037
:1001C00031816129AFF3008003681B0A28BF41F029
:1001D0008001692908F0FA83642908F0F7837529FA
:1001E00008F0F4836F2909F07180782908F05584AC
:1001F000E92909F00B80E42909F00880F52909F0C4
:100200000580EF2909F06E80F82908F0548403680E
:10021000DB0928BF41F08001632909F02783732996
:1002200009F02C83E32909F03783F32909F03C8393
:10023000002070471FB59DE8030008F08DFE09F00F
:10024000D3FB0400002000210AF0C0F8401C6060CD
:10025000002000210AF0D0F8E0601FBD10B510BDED
:1002600009F09DFB1146FFF7E5FF07F066F809F07E
:100270007BFC03B4FFF7F2FF03BC09F0ABFC00000A
:1002800070477047704701207047000010B501F0BB
:10029000CFF94FF4803001F0EBF901F028FA18495A
:1002A000087008460078012827D1102000F09CFD36
:1002B000022000F085FD002001F05FFA002001F02F
:1002C0006EFA4FF4806001F061FA4FF4E0114FF4E0
:1002D000803001F035FA012001F03EFA00BF3920EC
:1002E00001F0E9F90028FAD0022001F038FA00BF45
:1002F00001F03EFA0828FBD101E000BFFEE710BD87
:10030000000000200948804709480047FEE7FEE753
:10031000FEE7FEE7FEE7FEE7FEE7FEE7FEE7FEE7B5
:1003200004480549054A064B70470000D7040008F9
:10033000310100085032002050D2002050B200207D
:1003400050B20020704770477047704700BFFEE70B
:1003500000BFFEE700BFFEE700BFFEE77047704743
:10036000704710B507F01AF910BD7047704710B507
:100370001648006840F010001449086014480068EE
:10038000144909688847042002F06AFA1248007884
:1003900050281AD10E480068D0F8F80800F4006020
:1003A00098B104200D49086000200D4908700D49DE
:1003B0000870487088700C4908600C4908700C4936
:1003C000087000210B4807F003FF10BD1404014022
:1003D000400000203C000020C8000020C400002095
:1003E000CA000020F4000020DC000020C100002032
:1003F000C0000020001000400CB5002001900090CB
:100400006C48006840F480306A49086000BF694861
:10041000006800F4003000900198401C01900098A2
:1004200018B90198B0F5A06FF1D16248006800F4E6
:10043000003010B10120009001E0002000900098F1
:10044000012843D15C48006840F010005A49086018
:100450000846006820F0030008600846006840F085
:1004600002000860534840685249486008464068A6
:1004700048600846406840F480604860084640682C
:1004800020F47C1048600846406840F4E81048605A
:100490000846006840F08070086000BF454800686A
:1004A00000F000700028F9D04248406820F00300B6
:1004B000404948600846406840F00200486000BF7C
:1004C0003C48406800F00C000828F9D10CBD10B57C
:1004D000FFF792FF10BD10B53648006840F00100EC
:1004E000344908600846406834490840314948604A
:1004F00008460068324908402E49086008460068EE
:1005000020F4802008600846406820F4FE0048601F
:100510004FF41F008860FFF7DAFF4FF000602949B1
:10052000086010BD10B5002100200022214B5B683F
:1005300003F00C0121B1042906D0082928D107E0D5
:10054000214B224C236027E01F4B204C236023E0EB
:10055000184B5B6803F47010164B5B6803F4803231
:10056000022303EB904022B9194B4343174C2360FD
:100570000DE0104B5B6803F4003323B1144B43438D
:10058000124C236003E0104B4343104C236003E004
:100590000D4B0E4C236000BF00BF064B5B68C3F3DE
:1005A00003130C4CE15C094B1B68CB40074C2360E8
:1005B00010BD000000100240002002400000FFF8C3
:1005C000FFFFF6FE08ED00E000127A0004000020B4
:1005D00000093D000800002010B50446E2488442AE
:1005E00009D10121880301F0ABF900214FF48040CB
:1005F00001F0A6F932E0DD48844209D10121480426
:1006000001F0ABF900214FF4003001F0A6F925E02C
:10061000D748844209D10121880401F09EF90021C4
:100620004FF4802001F099F918E0D248844209D1B2
:100630000121C80401F091F900214FF4002001F0DC
:100640008CF90BE0CC48844208D10121080501F067
:1006500084F900214FF4801001F07FF910BD2DE9DD
:10066000F04786B005460E460024A24600BF00BFF4
:100670000027B08900B100BF2F462C8A4CF6FF70CE
:100680000440F08804432C82AC894EF6F3100440F9
:10069000B08831890843718908430443AC81AC8A2E
:1006A0004FF6FF400440B0890443AC8201A801F03A
:1006B000C0F8AD48874202D1DDF810A001E0DDF8B6
:1006C0000CA00AEBCA0000EB0A1031688900B0FBED
:1006D000F1F86420B8FBF0F004012009642101FB6B
:1006E0001089322000EB0910B0FBF1F000F00F0090
:1006F00004432C8106B0BDE8F0874FF41651016029
:1007000000218180C18001810C21418100218181F2
:10071000704710B502460020108A4FF2FF031840C0
:100720000B884C8823438C882343CC88234318436D
:10073000108210BD0021018041808180C1807047FE
:1007400021B1828942F40052828104E082894DF60F
:10075000FF731A4082817047F0B5034600240026DB
:100760000025002040F66A17B94200D100BF1846A4
:10077000C1F3421401F01F06012707FA06F5012C08
:1007800001D10C3004E0022C01D1103000E0143013
:100790001AB107682F43076002E00768AF4307609C
:1007A000F0BD1AB1838A0B43838202E0838A8B43B4
:1007B00083827047028A4FF6F0731A400282028ADF
:1007C0000A430282704782894FF2FF731A40828186
:1007D00082890A438281704721B1828942F00202F4
:1007E000828104E082894FF6FD731A40828170474E
:1007F000028A4FF6DF731A400282028A0A4302829B
:10080000704721B1028A42F48042028204E0028AE7
:100810004BF6FF731A4002827047C1F308028280D0
:10082000704701468888C0F308007047818941F00D
:10083000010181817047028BD2B20283028B42EAAE
:10084000012202837047028B02F47F420283028BF3
:100850000A430283704721B1828A42F020028282D9
:1008600004E0828A4FF6DF731A408282704721B11A
:10087000828A42F01002828204E0828A4FF6EF738D
:100880001A408282704721B1828A42F00802828235
:1008900004E0828A4FF6F7731A4082827047828A98
:1008A0004FF6FB731A408282828A0A438282704723
:1008B00021B1828A42F00202828204E0828A4FF6EB
:1008C000FD731A408282704702460020B1F5007F16
:1008D00000D100BF13880B400BB1012000E00020C5
:1008E000704701F40072B2F5007F00D100BFCA4327
:1008F0000280704770B502460024002300250020C6
:1009000040F66A16B14200D100BFC1F3421501F0B2
:100910001F03012606FA03F3012D02D19689334005
:1009200006E0022D02D1168A334001E0968A334058
:100930000C12012606FA04F41688344013B10CB1E7
:10094000012000E0002070BD10B50022002340F619
:100950006A14A14200D100BF0A1201249440A3B23C
:10096000DC43048010BD000000380140004400401A
:1009700000480040004C0040005000403149014315
:10098000314A1160704770B5002100230F22C478EE
:1009900004B32D4C246804F4E064C4F5E064210A37
:1009A000C1F10403CA40447804FA03F18478144086
:1009B00021430901254C0678A155047804F01F0550
:1009C0000124AC4005786D11AD0005F1E025C5F8B6
:1009D000004109E0047804F01F050124AC401C4DDF
:1009E0000678761145F8264070BD1A4A0A4002433F
:1009F000154B1B1F1A60704739B1134A121D12683C
:100A00000243114B1B1D1A6006E00F4A121D1268AB
:100A100082430D4B1B1D1A607047042808D14FF00C
:100A2000E021096941F004014FF0E022116107E083
:100A30004FF0E021096921F004014FF0E02211613B
:100A4000704700000000FA050CED00E000E400E053
:100A500080E100E080FFFF1F016821F001010160DB
:100A60000021016041608160C1608C49884208D1E9
:100A70008A490839496841F00F01884A083A5160AB
:100A80008AE086491431884208D184490839496886
:100A900041F0F001814A083A51607DE07F492831F8
:100AA000884208D17D490839496841F470617B4A20
:100AB000083A516070E079493C31884208D1774961
:100AC0000839496841F47041744A083A516063E05A
:100AD00072495031884208D170490839496841F457
:100AE00070216E4A083A516056E06C496431884280
:100AF00008D16A490839496841F47001674A083ADF
:100B0000516049E065497831884208D16349083924
:100B1000496841F07061614A083A51603CE06049BF
:100B2000884206D1011F096841F00F01021F1160C0
:100B300032E05B491431884208D15949091F0968DC
:100B400041F0F001564A121F116025E05449283146
:100B5000884208D15249091F096841F47061504A1E
:100B6000121F116018E04E493C31884208D14C49AF
:100B7000091F096841F47041494A121F11600BE0D6
:100B800047495031884207D14549091F096841F456
:100B90007021434A121F1160704710B5002202688D
:100BA00047F6F0739A430C6A8B6823430C6923431E
:100BB0004C6923438C692343CC6923434C6A234308
:100BC0008C6A23431A430260CB6843600B688360DE
:100BD0004B68C36010BD0021016041608160C1604D
:100BE000016141618161C16101624162816270475D
:100BF00021B1026842F00102026003E0026822F0C3
:100C00000102026070471AB103680B43036002E0FF
:100C100003688B43036070470146486880B27047A1
:100C200001460020002201F080531BB11C4B083B01
:100C30001A6802E0194B083B1A6802EA01030BB17B
:100C4000012000E00020704700F0805119B11449E4
:100C5000091F086002E011490839486070470146E1
:100C60000020002201F080531BB10D4B083B1A6895
:100C700002E00A4B083B1A6802EA01030BB10120AB
:100C800000E00020704700F0805119B10449091FAD
:100C9000086002E0014908394860704708000240D6
:100CA00008040240002044490860091D0860091D2D
:100CB0000860091D086041483F49143108607047C9
:100CC00000213D498279002A3AD00A461268036819
:100CD0009A430B461A600A1D126803689A430B1D5B
:100CE0001A60027911440A6803681A430A60324A9A
:100CF0000832126803689A432F4B08331A601A1D92
:100D0000126803689A432C4B0C331A604279102AFC
:100D10000ED11A1F126803681A43274B08331A6052
:100D20001A1D126803681A43234B0C331A600DE036
:100D30002149427911440A6803681A430A6005E0B0
:100D4000027911440A6803689A430A6070470021D7
:100D5000016001710C2141710021817170471649B8
:100D6000103109680143144A10321160704701467E
:100D70000020114A143212680A400AB1012000E032
:100D8000002070470C49143108607047014600206C
:100D90000022094B1B6803EA0102074B14331B684E
:100DA0000B4013B10AB1012000E000207047024956
:100DB000143108607047000000040140FFFF0F007D
:100DC00001460020FD4A106800F03800084310601A
:100DD0007047FA49096821F00801F84A1160114684
:100DE0000968014311607047F449096821F0100156
:100DF000F24A116011460968014311607047F048DA
:100E0000EE494860EF4848607047EC48006940F0A0
:100E10008000EA49086170470420E849C96801F088
:100E2000010109B101200EE0E449C96801F00401A3
:100E300009B1022007E0E149C96801F0100109B1D8
:100E4000032000E00420704708B500200090FF2038
:100E5000009002E00098401E009000980028F9D110
:100E600008BD70B504460425FFF7D6FF054605E02A
:100E7000FFF7EAFFFFF7D0FF0546641E012D01D101
:100E8000002CF5D104B90525284670BD70B505467E
:100E9000042440F6FF70FFF7E4FF0446042C19D148
:100EA000C648006940F00200C4490861084645612F
:100EB000006940F04000086140F6FF70FFF7D1FF85
:100EC0000446052C06D0BD48006941F6FD71084076
:100ED000BA490861204670BD10B5042440F6FF7081
:100EE000FFF7BFFF0446042C18D1B448006940F056
:100EF0000400B24908610846006940F040000861FA
:100F000040F6FF70FFF7ADFF0446052C06D0AB4856
:100F1000006941F6FB710840A8490861204610BDF0
:100F200010B5042440F6FF70FFF79BFF0446042C25
:100F30003BD1A348A1498860A2488860084600695F
:100F400040F0200008610846006940F04000086158
:100F500040F6FF70FFF785FF0446042C1CD197482C
:100F6000006941F6DF71084094490861084600694C
:100F700040F010000861A520934908800F20FFF77A
:100F800070FF0446052C10D08C48006941F6EF71C3
:100F900008408A49086108E0052C06D087480069A6
:100FA00041F6EF71084085490861204610BDF8B54B
:100FB00006460D460424002000900F20FFF751FF45
:100FC0000446042C28D17D48006940F001007B498B
:100FD000086135800F20FFF744FF0446042C12D12E
:100FE000B01C0090280C009908800F20FFF739FFF3
:100FF0000446052C10D07148006941F6FE71084086
:101000006E49086108E0052C06D06C48006941F67D
:10101000FE710840694908612046F8BD70B5054673
:101020000E4604240F20FFF71CFF0446042C13D1A6
:101030006248006940F00100604908612E800F207D
:10104000FFF70FFF0446052C06D05C48006941F607
:10105000FE71084059490861204670BD70B50546CB
:101060000E4604240F20FFF7FCFE0446042C17D183
:10107000534852498860534888600846006940F0E8
:10108000100008612E800F20FFF7EBFE0446052CB0
:1010900006D04A48006941F6EF71084047490861A7
:1010A000204670BD2DE9F04704464FF6FF763746DF
:1010B000B046B1460425E443E6B2C4F30727C4F3BF
:1010C00007484FEA14690F20FFF7CBFE0546042DB1
:1010D00040D13B48394988603A48886008460069F1
:1010E00040F010000861FF2E06D037480830068017
:1010F0000F20FFF7B6FE0546042D08D1FF2F06D0BE
:1011000031480A3007800F20FFF7ABFE0546042D5B
:101110000AD1B8F1FF0F07D02B480C30A0F800809F
:101120000F20FFF79EFE0546042D0AD1B9F1FF0FEF
:1011300007D025480E30A0F800900F20FFF791FE51
:101140000546052D06D01D48006941F6EF7108409F
:101150001A4908612846BDE8F08770B505460424A1
:1011600040F6FF70FFF77DFE0446042C49D1144879
:1011700012498860134888600846006940F02000E2
:1011800008610846006940F04000086140F6FF70C1
:10119000FFF767FE0446042C2AD10848006941F68F
:1011A000DF710840054908610846006940F01000F9
:1011B00008615DB10020044908800AE00020024077
:1011C00023016745AB89EFCD00F8FF1FA5204549F6
:1011D000088040F6FF70FFF744FE0446052C10D04F
:1011E0004148006941F6EF7108403F49086108E055
:1011F000052C06D03C48006941F6DF7108403A49A9
:101200000861204670BD2DE9F04105460E4617469F
:101210000424364834498860354888600F20FFF739
:1012200020FE0446042C19D12F48006940F010001C
:101230002D49086147F0F800304328432949891CAB
:1012400008800F20FFF70DFE0446052C06D0264827
:10125000006941F6EF710840234908612046BDE866
:10126000F0812148C069800870471F48006A7047B4
:1012700000201D49C96901F0020109B1012000E007
:101280000020704700201849096801F0200109B1C9
:10129000012000E00020704729B1134A126902437F
:1012A000114B1A6104E0104A126982430E4B1A6115
:1012B000704701460020012908D10B4AD26902F08B
:1012C00001020AB1012008E0002006E0064AD268C7
:1012D0000A400AB1012000E0002070470249C860BE
:1012E0007047000000F8FF1F0020024023016745FF
:1012F000AB89EFCD10B50446C448844208D1012122
:10130000042000F01DFB0021042000F019FB46E042
:10131000BF48844208D10121082000F011FB0021C0
:10132000082000F00DFB3AE0BA48844208D10121C0
:10133000102000F005FB0021102000F001FB2EE042
:10134000B548844208D10121202000F0F9FA00219B
:10135000202000F0F5FA22E0B048844208D10121B3
:10136000402000F0EDFA0021402000F0E9FA16E0FC
:10137000AB48844208D10121802000F0E1FA00212D
:10138000802000F0DDFA0AE0A648844207D101215E
:10139000801500F0D5FA0021A01500F0D1FA10BD9B
:1013A00010B50121084600F0CBFA0021012000F021
:1013B000C7FA10BD2DE9F0410246002500260020A5
:1013C00000230024002791F803C00CF00F0591F8CA
:1013D00003C00CF0100CBCF1000F03D091F802C058
:1013E0004CEA050591F800C0BCF1000F31D014683B
:1013F00000202BE04FF0010C0CFA00F3B1F800C014
:101400000CEA03069E4220D183004FF00F0C0CFA29
:1014100003F7BC4305FA03FC4CEA040491F803C04B
:10142000BCF1280F06D14FF0010C0CFA00FCC2F8F9
:1014300014C00AE091F803C0BCF1480F05D14FF089
:10144000010C0CFA00FCC2F810C0401C0828D1D3D3
:101450001460B1F800C0BCF1FF0F34DD5468002007
:101460002EE000F1080C4FF0010808FA0CF3B1F877
:1014700000C00CEA03069E4221D183004FF00F0CFE
:101480000CFA03F7BC4305FA03FC4CEA040491F898
:1014900003C0BCF1280F05D100F1080C08FA0CF8C4
:1014A000C2F8148091F803C0BCF1480F07D100F1D5
:1014B000080C4FF0010808FA0CF8C2F81080401C24
:1014C0000828CED35460BDE8F0814FF6FF7101804B
:1014D000022181700421C170704702460020936888
:1014E0000B400BB1012000E00020704701468868E6
:1014F00080B2704702460020D3680B400BB1012038
:1015000000E0002070470146C86880B27047016162
:101510007047416170470AB1016100E04161704765
:10152000C16070474FF480320A43826181618261F9
:10153000826982697047024600203B4B18684FF66B
:101540008073184040EA02100843374B1860704718
:101550003649C8617047F0B50A46002300240021CF
:101560000025314E7168C0F3034583B200F4401684
:10157000B6F5401F08D121F070612B4E766826F039
:101580007066294F7E6012E000F48016B6F5801F69
:1015900006D1032606FA05F4A14341F0706106E086
:1015A000460D360103FA06F6B14341F0706122B1EF
:1015B000460D360103FA06F631431B4E7160F0BD4D
:1015C00030B500228B071C0F0F2303FA04F2164BD1
:1015D00008338C1053F824309343134C08348D1087
:1015E00044F8253023468C1053F824308C07240F00
:1015F00000FA04F423430C4C08348D1044F82530D1
:1016000030BD0A49DC310860704700000008014025
:10161000000C01400010014000140140001801407E
:10162000001C014000200140000001400000204259
:10163000DF48006840F00100DD4908600846406866
:10164000DC490840DA49486008460068DA49084041
:10165000D74908600846006820F4802008600846E2
:10166000406820F4FE0048604FF41F008860704717
:10167000CF49096821F48031CD4A116011460968CB
:1016800021F480211160B0F5803F03D0B0F5802FA8
:101690000ED106E0C649096841F48031C44A1160A0
:1016A00007E0C349096841F4A021C14A116000E084
:1016B00000BF00BF704710B5014600220023002084
:1016C0004A11012A02D1BA4C236806E0022A02D14B
:1016D000B74C236A01E0B64C636A01F01F02012493
:1016E00094401C400CB1012000E0002010BD38B532
:1016F000002000900024002500BF3120FFF7DBFF11
:1017000005460098401C00900098B0F5A06F01D0ED
:10171000002DF2D03120FFF7CEFF08B1012400E008
:101720000024204638BD01460020A14A106820F060
:10173000F80040EAC10010607047A0490860704797
:10174000024600209A4B586820F47C1042EA0103BC
:101750001843974B58607047984908667047014690
:101760000020934A506820F00300084350607047FF
:101770008F48406800F00C007047014600208C4AFA
:10178000506820F0F0000843506070470146002088
:10179000874A506820F4E060084350607047014673
:1017A0000020834A506820F4605040EAC100506035
:1017B000704729B17E4A527A02437D4B5A7204E047
:1017C0007B4A527A82437A4B5A7270477B49D831AE
:1017D0000860704701460020754A506820F4404078
:1017E0000843506070470021714A20321170704ADE
:1017F00082F82010012802D004280AD104E0012137
:101800006B4A2032117005E00521694A20321170BF
:1018100000E000BF00BF7047694908607047644935
:10182000096A0143624A1162704765494439086098
:10183000704730B500210022002400235C4D6D6804
:1018400005F00C0121B1042905D0082923D105E0B8
:101850005C4D056022E05B4D05601FE0544D6D68F6
:1018600005F47012524D6D6805F48034022505EBC5
:1018700092421CB9544D554305600BE04C4D6D68C8
:1018800005F400351DB1504D5543056002E04D4D46
:101890005543056002E04B4D056000BF00BF444D5D
:1018A0006D6805F0F0010909484D6B5C0568DD4085
:1018B00045603F4D6D6805F4E061090A434D6B5C7E
:1018C0004568DD4085603A4D6D6805F46051C90A90
:1018D0003E4D6B5C4568DD40C560354D6D6805F477
:1018E0004041890B3A4D6B5CC568B5FBF3F505616A
:1018F00030BD29B12E4A526902432D4B5A6104E092
:101900002B4A526982432A4B5A61704729B1284AAF
:1019100092690243264B9A6104E0254A9269824308
:10192000234B9A61704729B1214AD2690243204B67
:10193000DA6104E01E4AD26982431D4BDA617047C6
:1019400029B11B4AD2680243194BDA6004E0184AF5
:10195000D2688243164BDA60704729B1144A126983
:101960000243134B1A6104E0114A12698243104B7F
:101970001A61704712494039086070470F49C864BE
:1019800070470B49C87170470948406A40F0807041
:1019900007494862704701460020054A92680A409C
:1019A0000AB1012000E000207047014988727047A9
:1019B000001002400000FFF8FFFFF6FE0000424268
:1019C0008004424200127A0000093D001800002005
:1019D0002800002010B50446BE48844208D10121E9
:1019E0008014FFF7ADFF0021A014FFF7A9FF16E058
:1019F000B948844208D101210014FFF7AEFF00214D
:101A00002014FFF7AAFF0AE0B448844207D101215D
:101A1000C013FFF7A2FF0021E013FFF79EFF10BDE8
:101A200010B50022028802F441520B884C882343EF
:101A30008C882343CC8823430C8923434C8923433C
:101A40008C892343CC8923431A430280838B4FF232
:101A5000FF74234083830B8A038210BD2DE9F04F6E
:101A600085B005460C464FF0000902274FF00008EC
:101A70004FF0010B0026B246A88B4FF24001084000
:101A8000A88302202884B5F81C90A068022801D100
:101A900000BF38E0A08810B94FF0010B01E04FF013
:101AA000020B8D48854200D100E000BF6846FFF779
:101AB000C0FEDDF800A0E088B0F5007F0AD14FEA53
:101AC0001A2000EB80004000A168B0FBF1F0401D3F
:101AD00086B20BE04FEA4B10BAFBF0F000EB80004F
:101AE0004000A168B0FBF1F0401D86B20A20B6FBB1
:101AF000F0F606F00108A6EB0800C0F34F074FF61A
:101B0000FF7000EA0828022F01DBFF2F02DD022709
:101B10004FF00008E08840EA080038432884A08895
:101B2000A1890843618808432188084340F4006084
:101B300040EA0909A5F81C9005B0BDE8F08F002126
:101B4000018041808180C180018141818181C18189
:101B50000721018270470021018041808180C1807E
:101B60000221816000218181704721B1028842F009
:101B70004002028004E002884FF6BF731A400280E0
:101B8000704721B1828B42F48062828304E0828BB1
:101B90004FF6FF331A408283704730B5002400238C
:101BA0000C110125A540ABB21AB185881D43858073
:101BB00002E085889D43858030BD1AB183880B4340
:101BC000838002E083888B438380704781817047E4
:101BD0000146888970474FF6FF62914204D002881F
:101BE00042F48072028004E002884FF6FF631A40DC
:101BF0000280704721B1828842F00402828004E0B2
:101C000082884FF6FB731A408280704702884FF239
:101C1000FF731A40028002880A43028070470188DD
:101C200041F480510180704721B1028842F4005292
:101C3000028004E002884DF6FF731A40028070476C
:101C400002460020012901D0108B00E0908A7047E5
:101C50000146088A7047B1F5804F04D1028842F4EA
:101C60008042028004E002884BF6FF731A40028033
:101C700070470246002013890B400BB1012000E0A1
:101C800000207047CA4302817047F0B50246002029
:101C900000240023002501F00F070126BE40B4B246
:101CA0000B1101269E40B3B2968806EA03051689F9
:101CB000264016B10DB1012000E00020F0BD10B5A6
:101CC000002201F00F040123A3409AB2D343038101
:101CD00010BD00000030014000380040003C0040D2
:101CE00070477047704710B501211148FFF711FC8C
:101CF000012010BD08B501214020FFF707FE01209B
:101D0000ADF8000003208DF8020010208DF80300CC
:101D100069460748FFF74EFBFFF7E5FF012008BDC6
:101D200010B501210248FFF7F2FB012010BD0000B1
:101D30000018014070477047704710B540F203111A
:101D40005A4807F05CF85A4800F0EAFD012010BD3F
:101D500070B505460C46002D6CD10A2C0ED005DC62
:101D6000FCB1032C1ED0082C45D133E00D2C04D03F
:101D7000152C1DD07F2C3ED12DE000BF00204B49FB
:101D800091F80011494A50544AA1494800F0A9FE6F
:101D9000464890F8020140F00100444981F80201F0
:101DA00047E046E000204149087081F8000140E02A
:101DB0000AE041A13E4800F094FE3C4890F8000142
:101DC000401E3A4981F80001384890F80001002887
:101DD000EFD12EE000BF38A1354800F082FE334835
:101DE00090F8000130B1314890F80001401E2F49B1
:101DF00081F800011DE0202C1ADB7E2C18DC2B481A
:101E000090F800017F280FDA284890F80001274950
:101E10000C54084690F80001401C81F8000121464E
:101E2000234800F038FE03E00721214800F033FE8C
:101E300000BF00BF70BD0FB400B5C1B043A8009093
:101E400001A8009A429906F071FD0020009001A9B6
:101E5000174800F046FE41B05DF814FB134890F8B7
:101E6000020100F001007047104890F80201C0F331
:101E7000400070470D4890F8020120F001000B4926
:101E800081F80201002081F8000101207047074815
:101E900090F8020120F00200044981F802010020BC
:101EA00081F801010120704701207047F8000020EF
:101EB00028A400080D0A0000082008007047704799
:101EC000704710B586B00446207C00285ED1FE49DC
:101ED0002068884205D1012141F20400FFF716FD78
:101EE00012E0FA492068884208D101210014FFF766
:101EF0001AFD01210820FFF709FD05E0F4A0FFF716
:101F0000DDFF002006B010BD6089E1890843A1898A
:101F10000843ADF8000003208DF8020018208DF86A
:101F2000030069466068FFF745FA2089ADF80000B4
:101F300003208DF8020010208DF8030069466068C8
:101F4000FFF738FA0020ADF804004FF48270ADF8C6
:101F500006000020ADF808000220ADF80A000120BC
:101F6000ADF80C004002ADF80E000020ADF81000F6
:101F7000ADF812000720ADF8140001A92068FFF7A2
:101F80004FFD01212068FFF7F0FD40E0CE492068B9
:101F9000884204D101210420FFF7B8FC0DE0CB49B1
:101FA0002068884204D101210820FFF7AFFC04E03B
:101FB000C7A0FFF783FF0020A4E72089ADF8140035
:101FC00003208DF8160010208DF8170005A9606811
:101FD000FFF7F0F96089E1890843ADF814000320A8
:101FE0008DF8160010208DF8170005A96068FFF71E
:101FF000E1F9A089ADF8140003208DF816004820FF
:102000008DF8170005A96068FFF7D4F900BF01211A
:102010000846FFF76EFC012074E770B504460D46D4
:10202000207CA8B900BF02212068FFF722FE00280B
:10203000F9D029462068FFF7C9FD00BF02212068BA
:10204000FFF717FE0028F9D02068FFF7C1FD70BD2B
:10205000802110E005EA010018B1E0896268106192
:1020600002E0E0896268506160896268106160899D
:102070006268506149100029ECDC0020E7E710B5E8
:102080000446207C28B94FF6FF712046FFF7C5FFB4
:1020900010BD802100200CE062689268A3891A407C
:1020A00002B10843628963681A61628963685A6190
:1020B00049100029F0DC00BFEAE770B58CB0044697
:1020C0000E4615464FF42A60FEF7BEFD00218648F5
:1020D000FEF78EFD20680C300190CDF808D000206E
:1020E0000390049507900890059006904FF4405097
:1020F0000A90002009900B9001A97B48FEF74DFD46
:1021000001217948FEF774FD002177481430FEF76D
:102110006FFD20680C30019002961020039004950A
:102120000020079008900590802006904FF44050C2
:102130000A90002009900B9001A96B481430FEF71B
:102140002CFD012168481430FEF752FD01220321C5
:102150002068FFF732FD00BF4FF40070FEF760FD0E
:102160000028F9D0002203212068FFF726FD0CB0DB
:1021700070BD70B58CB004460E4615464FF42A600B
:10218000FEF762FD00215848FEF732FD20680C3052
:102190000190029600200390049507900890059006
:1021A000802006904FF440500A90002009900B9038
:1021B00001A94D48FEF7F1FC01214B48FEF718FD3F
:1021C000002149481430FEF713FD20680C300190BF
:1021D000CDF808D0102003900495002007900890B7
:1021E000059006904FF440500A90002009900B9003
:1021F00001A93D481430FEF7D0FC01213A481430C3
:10220000FEF7F6FC012203212068FFF7D6FC00BF91
:102210002020FEF705FD0028FAD0002203212068C7
:10222000FFF7CBFC0CB070BD70B504460D461646EA
:10223000324629462046FFF740FF70BD70B5044680
:102240000D461646324629462046FFF792FF70BDDE
:102250000246002107E0481C81B24FF6FE70814221
:1022600001DB0020704719480830008800F00200A8
:102270000028F0D015480C300280002107E0481CEF
:1022800081B24FF6FE70814201DB0020EAE70F4881
:102290000830008800F001000028F0D00B480C3016
:1022A0000088C0B2DEE700B51048806940F0400009
:1022B0000E4988610846806940F008008861084638
:1022C000C06940F4804013E0003001400038004015
:1022D000556E737570706F72742053504920706F13
:1022E000727421210D0A00001C00024000100240FF
:1022F000C8612C480068C0F313002A4908600846EA
:1023000000682949084327490860264808300068C2
:1023100040F460402349083108602448008823497C
:1023200008800846008840F400700880084600884D
:1023300040F4807008800846008840F0040008805F
:102340000846008808800846008840F0020008809F
:102350000846008840F0010008800846008840F0E8
:10236000180008800846008808800846008840F069
:1023700040000880FF20FFF76BFF00BD00F0070062
:102380000A4909884FF6C7721140084A1180114660
:10239000098841EAC00111801146098841F04001D5
:1023A00011807047040C01400000B0BB00380040B1
:1023B00070477047704710B5FEF721FD012010BD32
:1023C00010B5FFF7F8FF012010BD30B503461C46DD
:1023D00003E020780870491C641C101EA2F1010261
:1023E000F7D1012030BD2DE9F74F86B08B4614465A
:1023F0000020059004908246042003904FF00009CD
:1024000001200290C00206F03BFA8146B9F1000FAC
:1024100005D1CAA0FFF7CCFF0020029083E1069E01
:10242000B046C6F30A00002874D0C8F30A0020445E
:10243000B0F5006F6FD9C6F30A01701A4FF400624D
:102440004946FFF7C2FFC6F30A01C1F50062C6F3B1
:102450000A0101EB0900594606F052FC3046FEF72E
:1024600015FD042818D14FF4007A4D46C6F30A0032
:10247000371A0CE038462968FEF799FD3868296854
:10248000884202D0002002904DE12D1D3F1DBAF17F
:102490000000AAF1010AEDD1C8F30A00C0F50060FE
:1024A000241AC8F30A00C0F500600644C8F30A0005
:1024B000C0F500608344C4F30A0068B33119C4F363
:1024C0000A02881A4FF400624946FFF77EFF0BEBC1
:1024D0000400C4F30A03C11AC4F30A02484606F012
:1024E0000FFC3019FEF7D2FC039988421CD14FF43F
:1024F000007A4D463019C4F30A01471A0FE03846F6
:102500002968FEF754FD38682968884205D0002004
:10251000029008E173E03FE006E02D1D3F1DBAF197
:102520000000AAF1010AEAD1C4F30A00241AE00A61
:102530000590002004900AE04FF40062049902FB29
:102540000160FEF7A3FC03900498401C0490DDE9B1
:102550000401884202D203980428EDD05D46374634
:1025600014E04FF4007A0CE038462968FEF71FFDAE
:1025700038682968884202D000200290D3E02D1DDF
:102580003F1DBAF10000AAF1010AEDD10598411EE4
:1025900005910028E5D1C5E0C8F30A01A8EB0100C8
:1025A0004FF400624946FFF710FFC6F30A0101EB42
:1025B00009002246594606F0A3FB19E04FF4007AC1
:1025C0004D46C6F30A00371A0CE038462968FEF774
:1025D000EEFC38682968884202D000200290A2E010
:1025E0002D1D3F1DBAF10000AAF1010AEDD105E051
:1025F0003046FEF74BFC03998842DFD092E0C4F3EB
:102600000A0098B13119C4F30A02891A88B24FF44A
:1026100000624946FFF7D9FE0BEB0400C4F30A033E
:10262000C11AC4F30A02484606F06AFBC4F30A0062
:1026300010B9E00A059003E0012000EBD4200590DA
:10264000002004900AE04FF40062049902FB01802C
:10265000FEF71CFC03900498401C0490DDE9040183
:10266000884202D203980428EDD00598012817D19A
:102670004FF4007A4D4647460CE038462968FEF78D
:1026800096FC38682968884202D0002002904AE00F
:102690002D1D3F1DBAF10000AAF1010AEDD141E064
:1026A000059801901AE05D4647464FF4007A10E025
:1026B00038462968FEF77BFC38682968884206D0CE
:1026C000394627A0FFF774FE002002902BE02D1D55
:1026D0003F1DBAF10000AAF1010AE9D10198411E9B
:1026E00001910128DFDC4D460598401E08EBC0270C
:1026F0004FF4007A10E038462968FEF758FC386835
:102700002968884206D039461BA0FFF751FE0020F9
:10271000029008E02D1D3F1DBAF10000AAF1010A48
:10272000E9D100BF00BFB9F1000F02D0484606F062
:10273000D6F8029809B0BDE8F08F0000466C6173CE
:10274000685F57726974653A204D656D6F727920C4
:10275000616C6C6F63206661696C65642131000097
:10276000566572696679206572726F722131203008
:1027700078253038580D0A005665726966792065EB
:1027800072726F722132203078253038580D0A006D
:1027900070477047704710B5044621463948FEF728
:1027A000B6FE10BD08B501210420FFF7AFF80C20DC
:1027B000ADF8000003208DF8020010208DF8030012
:1027C00069463148FEF7F6FD01214020FFF79EF8EB
:1027D0004FF46940ADF8000003208DF8020010208E
:1027E0008DF8030069462948FEF7E4FD0121082021
:1027F000FFF78CF84FF44060ADF8000003208DF82F
:10280000020010208DF8030069462148FEF7D2FD32
:102810000120FFF7C0FF0220FFF7BDFF0420FFF7F4
:10282000BAFF0820FFF7B7FF4FF400611848FEF722
:102830006EFE4FF480611648FEF769FE4FF480711A
:102840001248FEF764FE4FF400511048FEF75FFE99
:1028500008BD10B5044621460A48FEF75AFE10BDD1
:1028600010B5044621460848FEF744FE20B921462B
:102870000548FEF74CFE03E021460348FEF749FEFB
:1028800010BD000000140140000801400018014084
:10289000000C014070477047704708B50121402087
:1028A000FFF734F80220ADF8000003208DF8020095
:1028B00010208DF8030069460A48FEF77BFDFFF7FC
:1028C00012FA012008BD10B502210648FEF71FFECE
:1028D000012010BD10B502210248FEF71AFE0120AA
:1028E00010BD00000018014070477047704710B5D8
:1028F00040F225518548FDF7FDFF70B140F22551AA
:102900008248FEF721F88148FDF78BFFC4B22146CB
:1029100000207F4A1268904700BF10BD7047704783
:1029200010B586B0044679492068884205D1012156
:1029300044F20400FEF7EAFF17E076492068884277
:1029400004D101217448FEF7E1FF0EE073492068CD
:10295000884204D101217248FEF7D8FF05E071A03A
:10296000FFF7C2FF002006B010BD6089ADF814006B
:1029700003208DF8160018208DF8170005A960684F
:10298000FEF718FD2089ADF8140004208DF817001B
:1029900005A96068FEF70EFDE06802900020ADF822
:1029A0000C00ADF80E00ADF81000ADF814000C20CE
:1029B000ADF812000020ADF80000ADF802004FF4B1
:1029C0000070ADF804000020ADF8060002A92068F0
:1029D000FDF745FE69462068FDF79BFE0121206852
:1029E000FDF7AEFE012240F225514848FDF7B4FE46
:1029F000207C00F0010078B300214FF00060FDF76B
:102A0000F4FF4FF4E060FDF7B9FF404920688842C9
:102A100003D125208DF8140014E03E492068884237
:102A200003D126208DF814000CE03C492068884230
:102A300003D127208DF8140004E03AA0FFF754FFDB
:102A4000002090E700208DF8160001208DF8170077
:102A500005A8FDF798FF00BF2C492068884203D1E4
:102A60002B496069086014E02A492068884203D134
:102A70003249606908600CE028492068884203D127
:102A80002F496069086004E026A0FFF72DFF0020B1
:102A900069E7012067E770B504460D4629462068BE
:102AA000FDF7BBFE00BF2068008800F08000002812
:102AB000F9D070BD2DE9F04104460E4617460025B9
:102AC0000BE0715D2068FDF7A8FE00BF206800885C
:102AD00000F080000028F9D06D1CBD42F1DBBDE89C
:102AE000F08170B504460D4600260BE0A95D206814
:102AF000FDF793FE00BF2068008800F080000028EA
:102B0000F9D0761CA85D0028F0D170BD00380140D6
:102B10002C0000200044004020000200004800403B
:102B200010000400556E737570706F7274205541FB
:102B3000525420706F7274210D0A00003000002082
:102B40003400002070477047704710B5002494A0EF
:102B500000F072FC04460CB1204610BD93A000F0BA
:102B60006BFC04460CB12046F7E794A000F064FC2F
:102B700004460CB12046F0E794A000F05DFC04464A
:102B80000CB12046E9E795A000F056FC04460CB1D4
:102B90002046E2E72046E0E72DE9F041064600271F
:102BA000012E02D0022E33D113E09048006880F845
:102BB00073688E480068808A20F0080421468B489C
:102BC000006802F066F9054615B9884800688482F5
:102BD00021E08648006880F8736884480068808A2D
:102BE00040F008048148006890F8D4080D2802D10C
:102BF00044F4004401E024F4004421467B4800688A
:102C000002F047F9054615B978480068848202E069
:102C10006FF0020700BF00BF3846BDE8F08170B515
:102C200088B0054600267148006890F872080128AF
:102C300005D06E48006890F87208022815D16946E0
:102C4000284602F0A2FB044614B96FF002060BE01E
:102C5000224669466548006800F6D50006F050F83F
:102C60006248006880F8D44804E061A0FFF76AFF7A
:102C70006FF00206304608B070BD10B500245B4806
:102C80000068D0F8F80800F40050E0B15748006838
:102C900090F8680620B95548006802F090FA06E0FE
:102CA0005248016801F20C61006801F0B3FF00BFF7
:102CB0004E480068D0F8F80820F400504B490968E5
:102CC000C1F8F80800BF4948006890F87108022868
:102CD0000FD14648016801F20C61006802F080F9EA
:102CE00004463CBB02214148006801F076FF0446DF
:102CF00020E03E48026802F20C62016801F50561BD
:102D0000006801F0B7FD04463CB93848016801F29B
:102D10000C61006801F0E3FD04465CB933480068CB
:102D200090F87308022805D102213048006801F0AC
:102D300054FF04462CB134A0FFF704FF4FF0FF30DE
:102D400010BD2046FCE710B50024FFF7FEFE044648
:102D50000CB1204610BD84222448016801F50561AC
:102D60003448FFF732FB2149096891F87308FFF7EF
:102D700013FF04460CB12046ECE71C48006800F63F
:102D80007A00FFF74CFF044624B12BA0FFF753F85D
:102D90002046DFE7FFF771FF04462046DAE7000030
:102DA00067657420737369640000000067657420B0
:102DB0006E6574776F726B747970650067657420E7
:102DC000617574686D6F646500000000676574204C
:102DD000656E6372796D6F646500000067657420CD
:102DE0006B65796173636969000000004000002031
:102DF000556E737570706F727420617574686D6F45
:102E000064652E0D0A000000576946694170695FCC
:102E1000446F436F6E6E6563743A20434D445F4365
:102E200054524C5F434F4E4E206661696C65640D91
:102E30000A00000000DC07084B6579206572726F9C
:102E4000722C20706C6561736520636865636B2EFE
:102E50000D0A000070477047704710B50246002009
:102E600024E000E0521C1378202BFBD01378092BB0
:102E7000F8D013781BB9002341F8203010BD034669
:102E8000401C41F8232000E0521C13782BB113782A
:102E9000202B02D01378092BF6D113781BB900230D
:102EA00041F82030EAE7002302F8013B0328D8DB91
:102EB00000BFE3E72DE9FC4105460C460026FDA1D5
:102EC000284605F0E5FFA8B9204605F0FAFE20B136
:102ED000204605F0F6FE202802D96FF00206E0E059
:102EE000204605F0EEFE471C3A462146F348FFF720
:102EF0007AFAD6E0F2A1284605F0CAFFE8B9002028
:102F00000190F2A1204605F0C3FF10B90120019005
:102F100006E0F0A1204605F0BBFF08B902200190B1
:102F20009DF8040010B96FF0020605E0012201A926
:102F3000E2482130FFF757FAB3E0E8A1284605F050
:102F4000A7FFE8B900200190E7A1204605F0A0FF07
:102F500010B90120019006E0E5A1204605F098FF98
:102F600008B9022001909DF8040010B96FF0020624
:102F700005E0012201A9D1482230FFF734FA90E0A0
:102F8000DDA1284605F084FFE8B900200190DDA10D
:102F9000204605F07DFF10B90120019006E0DBA17D
:102FA000204605F075FF08B9022001909DF8040045
:102FB00010B96FF0020605E0012201A9BF482330D5
:102FC000FFF711FA6DE0D2A1284605F061FFB0B914
:102FD000204605F076FE20B1204605F072FE40281E
:102FE00002D96FF002065CE0204605F06AFE471C3D
:102FF0003A462146B1482A30FFF7F5F951E0C7A11A
:10300000284605F045FF70B96946204602F066FA89
:1030100010B96FF0020605E006226946A7486B303A
:10302000FFF7E1F93DE0BFA1284605F031FF70B997
:1030300001A9204602F004FA10B96FF0020605E07B
:10304000042201A99D487430FFF7CDF929E0B7A10A
:10305000284605F01DFF70B901A9204602F0F0F9DD
:1030600010B96FF0020605E0042201A993487830F8
:10307000FFF7B9F915E0AFA1284605F009FF70B9CF
:1030800001A9204602F0DCF910B96FF0020605E054
:10309000042201A989487C30FFF7A5F901E06FF00F
:1030A00001063046BDE8FC8170B592B005460C467D
:1030B000002680A1284605F0EBFEA8B9212209A927
:1030C0007E48FFF782F909A805F0FBFD20B109A8A9
:1030D00005F0F7FD202802D96FF0030603E009A9E7
:1030E000204605F0CAFD89E175A1284605F0D0FE0D
:1030F000E0B900201190012211A970482130FFF79A
:1031000064F99DF84400012804D170A1204605F01F
:10311000B4FD0AE09DF84400022804D16DA12046C8
:1031200005F0ABFD01E06FF0030667E16BA12846F7
:1031300005F0AEFEE0B900201190012211A95F4810
:103140002230FFF742F99DF84400012804D166A11E
:10315000204605F092FD0AE09DF84400022804D1C3
:1031600063A1204605F089FD01E06FF0030645E10B
:1031700061A1284605F08CFEE0B9002011900122E3
:1031800011A94E482330FFF720F99DF8440001288B
:1031900004D15CA1204605F070FD0AE09DF84400D2
:1031A000022804D159A1204605F067FD01E06FF027
:1031B000030623E156A1284605F06AFEB0B9412274
:1031C00001A93E482A30FFF700F901A805F079FD72
:1031D00020B101A805F075FD402802D96FF0030663
:1031E00003E001A9204605F048FD07E14BA1284670
:1031F00005F04EFED0B9062210A930486B30FFF71B
:10320000E4F89DF845009DF844109DF843209DF892
:103210004230CDE90032CDE902109DF841309DF8F1
:10322000402048A1204605F093FBE7E03DA1284659
:1032300005F02EFE30BB042211A920487430FFF7A0
:10324000C4F800BF1198000E8DF840001198000CD2
:103250008DF841001198000A8DF842001198C0B213
:103260008DF8430000BF9DF843009DF84210CDE962
:1032700000109DF841309DF840203AA1204605F00D
:1032800067FBBBE029A1284605F002FE88B90422AD
:1032900011A90A487830FFF798F800BF1198000E7E
:1032A0008DF840001198000C8DF841001198000A2B
:1032B0005EE074E0737369640000000000DC0708DE
:1032C0006E6574776F726B7479706500696E667283
:1032D000610000006164686F6300000061757468DC
:1032E0006D6F6465000000006F70656E0000000087
:1032F0007368617265640000656E6372796D6F64F6
:103300006500000064697361626C65007765700038
:103310006B65796173636969000000006D616361C9
:103320006464720069706164647200007375626E37
:1033300065740000676174657761796970616464C0
:1033400072000000253032583A253032583A253084
:1033500032583A253032583A253032583A253032F0
:103360005800000025642E25642E25642E25640057
:103370008DF842001198C0B28DF8430000BF9DF84F
:1033800043009DF84210CDE900109DF841309DF8B2
:103390004020AFF23001204605F0DAFA2EE0AFF21D
:1033A0006C01284605F074FD30BB042211A94E487B
:1033B000FFF70BF800BF1198000E8DF84000119830
:1033C000000C8DF841001198000A8DF84200119808
:1033D000C0B28DF8430000BF9DF843009DF8421035
:1033E000CDE900109DF841309DF84020AFF28C01EE
:1033F000204605F0ADFA01E06FF00106304612B04C
:1034000070BD70B504460E46002538A1204605F073
:103410003FFD78B137A1204605F03AFD18B9FFF716
:1034200092FC054606E035A1204605F031FD08B1C5
:103430006FF00105284670BD30B5C3B005460024C5
:10344000294620A805F019FC40A920A8FFF705FD92
:103450002DA1409805F01CFD28B942994198FFF72D
:1034600029FD044627E029A1409805F011FDA8B9DF
:1034700069464198FFF718FE0446201D18B924A09C
:10348000FEF7D9FC09E0A01C18B924A0FEF7D3FC74
:1034900003E0694626A0FEF7CEFC0CE026A140988A
:1034A00005F0F6FC28B942994198FFF7AAFF0446B7
:1034B00001E04FF0FF34601C18B921A0FEF7BBFCFF
:1034C0000EE0A01C18B915A0FEF7B5FC08E0E01C42
:1034D00018B920A0FEF7AFFC02E023A0FEF7ABFC7A
:1034E000204643B030BD00007CDC07087363616E8A
:1034F00000000000636F6E6E65637400646973633F
:103500006F6E6E65637400007365740067657400A8
:103510006E6F747365740D0A00000000556E6B6E5B
:103520006F776E206F7074696F6E2E0D0A00000049
:1035300025730D0A000000006374726C0000000027
:10354000556E6B6E6F776E20636F6D6D616E642E5E
:103550000D0A0000506172616D65746572206572BC
:10356000726F722E0D0A000050726F6365737320C4
:103570004F4B2E0D0A00000070477047704713B57F
:103580000446022201A9204600F0D0FB1CBD70B504
:1035900004460D4602222946204600F07DFB70BD00
:1035A00038B5044600216420FFF7E9FF69465C2036
:1035B000FFF7EDFF28B1BDF800004FF6FF7188421C
:1035C00001D100200090BDF80010E9A0FFF7D4FF62
:1035D000BDF8000038B3BDF800201F2020EA02012A
:1035E0005C20FFF7CCFFBDF8000000F0010010B137
:1035F000204602F0DEF8BDF8000000F0020010B135
:10360000204602F0D7F8BDF8000000F0100010B11D
:10361000204601F0ECF800BFD4F8F80840F48060D0
:10362000C4F8F80800BF1F216420FFF7A8FF38BDC9
:1036300010B50446D5A0FFF79FFF40F6FC012046D9
:1036400005F0FFFB00F022FBD4A0FFF795FF10BDB3
:1036500070B5054600F0E6FA044614B92846FFF7AF
:10366000E7FFAFF2C300D1490860204670BD08B53E
:103670001F216420FFF783FF69464020FFF787FF83
:10368000BDF8000020F4F0714020FFF778FF08BD7E
:1036900008B50020009069463420FFF778FFBDF898
:1036A000000048F68801884201D1012008BD0020B1
:1036B000FCE770B504460D461646324629462046BC
:1036C00000F034FB70BD38B50446002517E04FF616
:1036D000FF70009069465C20FFF759FFBDF80000BD
:1036E0004FF6FF71884206D0BDF8000000F00400DC
:1036F00008B1012038BD012003F083FF6D1CA542F5
:10370000E5DB0020F6E7F8B505460E46002400BFCD
:1037100000200090022003F074FF69462820FFF784
:1037200036FF601C0446642804DDA1A0FFF724FFD7
:103730000020F8BDBDF800000028E9D000243CE0DE
:10374000C820FFF7C0FF20B9A4A0FFF715FF002095
:10375000EFE769462820FFF71AFFBDF8000000B91F
:103760002CE0BDF80000B0F5806F06DDBDF800105C
:10377000A2A0FFF701FF0020DBE7BDF8000000F08A
:10378000010048B1BDF80010A6A0FFF7F5FEBDF896
:10379000000020F0010000902919BDF80020182039
:1037A000FFF787FF00215C20FFF7E9FE042144209A
:1037B000FFF7E5FEBDF800000444C1E700BFA642E4
:1037C00007D0BDF8002031469FA0FFF7D5FE0020AE
:1037D000AFE73146A8A0FFF7CFFE0120A9E72DE90A
:1037E000F04104460E46A71925461BE0402128203B
:1037F000FFF7C5FEC820FFF766FF28B9A7A0FFF7AF
:10380000BBFE0020BDE8F081402229461820FFF7CA
:1038100050FF00215C20FFF7B2FE04214420FFF797
:10382000AEFE4035BD42E1D33146A6A0FFF7A4FE6F
:1038300000212820FFF7A3FE00215C20FFF79FFE58
:1038400004214420FFF79BFE0120DBE710B5002197
:103850006420FFF794FE10BD38B5FFF7F7FF00F0C6
:103860008CF940F65C01A048FFF7B9FF04463CB173
:103870000A2003F0C6FE9D499D48FFF744FF044619
:1038800084B10A2500BF0A2003F0BBFEFFF700FF4A
:10389000044614B9681E051EF5DA14B995A0FFF7A1
:1038A0006BFE00BFBCB169465C20FFF770FEBDF83F
:1038B0000000C04381B25C20FFF761FE69465C20D6
:1038C000FFF765FE69465820FFF761FEFFF7CFFE60
:1038D00000F0DAFA00BF21468DA0FFF74DFE20462A
:1038E00038BD38B50546012490A0FFF745FEB4B1B8
:1038F00000F079FA052092490870082406E0FFF7E5
:10390000ABFF00B104E000F055FA641E002CF6DCB9
:1039100000BF01208A4908700CB900F0B0FA44B128
:10392000012000906B466A460121284601F0F0F91B
:1039300000BF204638BD70B504460D4616463246D7
:103940002946204600F0A8F970BD10B5012140209D
:10395000FFF715FE022801D1012010BD0020FCE771
:1039600010B500214020FFF70AFE10BD704700008F
:1039700049665F4F6E496F496E74723A20496F49CC
:103980006E747220253034780D0A00002B49665F72
:103990004465696E697428290D0A00002D49665F27
:1039A0004465696E697428290D0A00003C000020F6
:1039B000576C616E496D61676550726F673A20435D
:1039C000616E6E277420676574207468652070616D
:1039D000636B65742073697A650D0A004669726DC0
:1039E0007761726520646F776E6C6F6164206469C3
:1039F0006564202E2E2E2E2E2E0D0A00576C616E21
:103A0000496D61676550726F673A205061636B65FD
:103A10007453697A6528256429206572726F720D66
:103A20000A000000576C616E496D61676550726FE6
:103A3000673A20435243206572726F72286E4C655C
:103A40006E3D2564290D0A00576C616E496D6167F2
:103A50006550726F673A206E496D6753697A655B8E
:103A600025645D213D6E57726974654C656E5B25FA
:103A7000645D290D0A000000446F776E6C6F61640D
:103A8000202564206279746573206F6620576C610D
:103A90006E20496D6167650D0A00000048656C7015
:103AA0006572204669726D7761726520646F776E0A
:103AB0006C6F61642064696564202E2E2E2E2E2E7C
:103AC0000D0A0000446F776E6C6F616420256420DE
:103AD0006279746573206F662068656C706572200A
:103AE000496D6167650D0A0000F00508BCEE010034
:103AF00000FC0508496D61676520446F776E20689A
:103B0000617320736F6D65206572726F720D0A00AC
:103B10004669726D77617265446F776E6C6F776E10
:103B20002072633D25640D0A000000002B49665F8A
:103B3000537461727444657669636528290D0A00BF
:103B40003800002070477047704710B50446224681
:103B5000D349D448FEF768FB204610BD10B5044693
:103B60002246CF49CF48FEF769FB204610BD10B56D
:103B7000CDA0FFF7E7FF012010BD10B5CEA0FFF7E5
:103B8000E1FFD348006820F01000D149086001200F
:103B900010BD1FB5CFA0FFF7D5FF01211120FDF704
:103BA000B5FE1020ADF80C0003208DF80E00482063
:103BB0008DF80F0003A9CC48FDF7FCFB00214FF066
:103BC0000060FCF712FF4FF4E060FCF7D7FE0A201C
:103BD0008DF8080000208DF809008DF80A000120FA
:103BE0008DF80B0002A8FCF7CEFE102000900020FC
:103BF0008DF8040010208DF8050001208DF80600D6
:103C00006846FDF75DF804210220FDF7D9FC10207D
:103C1000FDF7A5F8FFF7B1FFB4A0FFF793FF012070
:103C200004B010BD08B59F48FEF74BF901211820DC
:103C3000FDF76CFE0120ADF8000003208DF80200B6
:103C400010208DF803006946AD48FDF7B3FB4FF433
:103C50008050ADF8000003208DF8020010208DF890
:103C600003006946A648FDF7A5FBFFF792FF012870
:103C700001D0002008BDFFF77AFF012801D0002005
:103C8000F8E7A0A0FFF75EFF0120F3E710B5A1A0C1
:103C9000FFF758FF012010BD2DE9F74F8146804DF9
:103CA000804A11895068FDF734FC029F9D480078D6
:103CB000022101EB4008FF224146284605F097F813
:103CC0004FEA1920287085F801904046FFF73DFF24
:103CD000404523D1019E2C461DE005F5806AAAEBE4
:103CE000040B5F4502DABB4604EB070AAAEB0508A2
:103CF0004046FFF733FF404500D00EE006E0607815
:103D000006F8010B207806F8010BA41C5445F6D3E5
:103D1000A7EB0B072C46002FDFDC00BF614A11899F
:103D20005068FDF7F4FB0298BDE8FE8F2DE9F74FD0
:103D300082B0804691465A4D5A4A11895068FDF723
:103D4000E8FB4E46039FC8F3072040F08000287030
:103D500085F80180AC1C20E005F5806AAAEB040B15
:103D60005E4502DAB34604EB060A06E017F8010BDB
:103D7000607017F8010B2070A41C5445F6D3AAEB11
:103D8000050001900198FFF7E0FE0146019881428D
:103D900000D004E0A6EB0B062C46002EDCDC00BFB6
:103DA000404A11895068FDF7B2FBA9EB060005B047
:103DB000BDE8F08F10B55CA0FFF7C4FE4FF4805053
:103DC0004F49103108600A2003F01BFC4FF480506B
:103DD0004B49143108600A2003F013FC56A0FFF78A
:103DE000B1FE012010BD38B557A0FFF7ABFE012092
:103DF00043491031086003F004FC2A4A11895068D5
:103E0000FDF787FB012003F0FCFBFFF7D3FF254AFA
:103E100011895068FDF77BFB4F48FFF793FE0024A4
:103E2000002521E00094BDF800104CA0FFF78AFEA9
:103E3000022269466420FFF779FF002000900222E9
:103E400069466420FFF728FFBDF8001047A0FFF780
:103E500079FEBDF80000A04203D048A0FFF772FE33
:103E600004E0601C84B26D1C642DDBDB00BF48A045
:103E7000FFF768FE4BA0FFF765FE012038BD01206B
:103E80001F4914310860704710B54AA0FFF75AFE69
:103E90000F48006840F010000D490860012010BD77
:103EA000FB01002040A400082B48775F446D614966
:103EB0006E697428290D0A002B48775F436C6F7375
:103EC00065496E746572727570747328290D0A00E5
:103ED000000401402B48775F496E7472496E697423
:103EE00028290D0A00000000001001402D48775FCE
:103EF000496E7472496E697428290D0A0000000029
:103F0000000C01402D48775F496E697428290D0A1D
:103F1000000000002B48775F4465696E69742829AA
:103F20000D0A0000380000202B48775F526573654A
:103F30007428290D0A0000002D48775F52657365CB
:103F40007428290D0A0000002B48775F506F7765B1
:103F5000724F6E28290D0A0048A50008577269742F
:103F6000653A203078253034580D0A005265616476
:103F70003A203078253034580D0A0000535049203B
:103F800074657374206661696C65642100000000CB
:103F9000535049207465737420646F6E652E0D0A4A
:103FA000000000002D48775F506F7765724F6E28D4
:103FB000290D0A002B48775F4F70656E496E746556
:103FC00072727570747328290D0A0000704770476B
:103FD000704770B506460C4615462DB122460121A4
:103FE000304600F045FE70BD22460021304600F00C
:103FF0003FFEF8E770B504460D46164632462946A0
:10400000204601F07FFB70BD70B504460D46164694
:1040100032462946204601F0E2FA70BD70477047EB
:10402000704770B50446002504E04FF47A7003F041
:10403000E8FA6D1CD4F8F80800F4007008B10A2DF5
:10404000F3DB0A2D01D1022070BD00BFD4F8F808BF
:1040500040F40070C4F8F80800BF0020F4E70146FF
:1040600000BFD1F8F80820F40070C1F8F80800BFCC
:10407000002070470146502901D1122100BF00BF26
:1040800041F4004070472DE9F04104466568A87886
:1040900000F0010010B16888401D01E06888001D33
:1040A00087B2BDB100206060FCA0FFF7B7FF3A46C1
:1040B00029461820FFF7FDFA064626B104214420C0
:1040C000FFF75DFA064616B90020A0602082FAA02C
:1040D000FFF7A4FF3046BDE8F0812DE9F04104462A
:1040E0000F46002600BFD4F8F80820F48060C4F81A
:1040F000F80800BF2046FFF7C6FF10B90020BDE852
:10410000F08104E04FF47A7003F07BFA761CD4F867
:10411000F80800F4806008B90A2EF3DB0A2E01D1FA
:104120000020ECE7A06830B92188EAA0FFF776FF0D
:10413000E089208218E0A568E88868B9A888A18984
:10414000884209D1208A6988884205DB2088FFF7E8
:1041500091FF2988884206D000202082228A218867
:10416000E7A0FFF75BFF00BF208AC8E7F0B50C4669
:10417000DDE9055611460C804B8087897F1CBFB254
:1041800087818F800027CF8004804260C381856053
:104190000EB1374600E01F460782F0BD2DE9FC470F
:1041A0000746884607F11604254603202872FF2299
:1041B000062105F1090004F01AFE0F34404604F010
:1041C00080FDA0B1264600203080404604F079FDF5
:1041D0007080404604F075FD81464A464146301DD8
:1041E00004F08EFD7088001D2044044600BF214667
:1041F00040F201130B8000234B80241D01220EE0AE
:10420000204642700023037083706423A0F80330BB
:10421000A0F805304B88DB1D4B80E41D521C0E2A94
:10422000EEDD2646012030800C2070807288BF4968
:10423000301D04F065FD7088001D04444FF480605B
:10424000CDE90050601B83B22A4606213846FFF7AD
:104250008DFFBDE8FC872DE9FC4780460D4608F13F
:1042600016042646B5F87E0001909DF8050020F062
:1042700002008DF805006868B0602889B081BDF83B
:104280000400F081142030827C20405B7082032087
:1042900030751534274600203880A88978807A88C0
:1042A00005F11001381D04F02BFD7888001D044431
:1042B0002046032101800121418095F82C120171D3
:1042C0004188091D0C442046031D0022002107E0FF
:1042D000964F17F801901746521C03F80790491C97
:1042E0000C29F5D301270780428047883F1D3C44B5
:1042F000204640F21311018010214180241DD5F881
:1043000010222260D5F8141261600834696F2160B0
:10431000A96F61600834204640F21F11018002211C
:10432000418098F87218012902D0022906D102E0D2
:104330000021818006E00121818003E04FF6FF71BA
:10434000818000BF00BF4188091D0C444FF480608C
:10435000CDE90060A01B83B2324650214046FFF7F2
:1043600005FFBDE8FC872DE9F04F89B00C4690466B
:104370001E462746354606F1740A4FF000096CA028
:10438000FFF74CFEF879B9797A793B79CDE90232B9
:10439000CDE90410F8787F1D17F8031CCDE9001053
:1043A000FB89BA89F87800F07F0041426648FFF740
:1043B00035FE57F8030C6860B7F801002881F878DB
:1043C00000F07F00404268637868CAF80000B8686F
:1043D000CAF80400B889AAF808002020E863B9895F
:1043E0002964F889AAF80A00F8890890F8897F1FDB
:1043F00008909DF82000C0F3001028639DF820006D
:10440000C0F3400080F0010085F85C0015340C20FA
:104410003067A01C404518D2A8EB0400B0F5C87F57
:1044200002D2A8EB040001E04FF4C8708346306F5D
:10443000584430675A46214606F1800004F060FC7B
:1044400006F1800404EB0B0800BF306F7430286065
:104450002868C01C20F0030028602FE1207806287F
:1044600074D006DC052872D2DFE800F00C8DA1B90B
:10447000D70007286CD02A286BD032286AD096281B
:1044800065D112E16278A11C684604F039FC002075
:1044900061780DF8010061786A465CE0436D642044
:1044A000446F776E6C6F6164696E673E3E3E3E3E60
:1044B0003E3E3E3E3E0D0A000D0A2A2A2A2A446F3D
:1044C000776E6C6F6164204F7665722A2A2A2A0DF6
:1044D0000A0D0A00436D6450726F63657373436D18
:1044E000643A20636D643D25303478286E527853E9
:1044F000697A653D3029204F4B2E0D0A00000000DF
:10450000436D6450726F63657373436D643A2063E7
:104510006D643D25303478286E527853697A653D54
:10452000256429204F4B2E0D0A00000054A40008DA
:104530002B436D645363616E496E7465727072656E
:10454000743228290D0A000094A500086EE0B1E03D
:1045500079E081E08CE0E9A0FFF760FD607888B148
:104560006078202801D2607800E02020E860A11C5B
:1045700005F11000EA6804F0C3FB002105F110000A
:10458000EA68815496E06178E6A0FFF747FD60781D
:1045900060B16078102801D2607800E01020814678
:1045A0004A46A11C05F15D0004F0AAFB82E0617897
:1045B000E5A0FFF733FD607880B12046002185F843
:1045C00038100022AA641022EA6442792A6502792E
:1045D0006A654288AA65C6F82C1200BF6AE0617855
:1045E000E5A0FFF71BFD6078B0B1A346032085F876
:1045F00038009BF8020000EB800000F66710A8640A
:104600009BF80200C6F82C029BF8021005F110027C
:10461000E5A0FFF703FD4DE04CE06178EDA0FFF76A
:10462000FDFC607808B1C6F8304243E06178F0A044
:10463000FFF7F4FC607828B1204642886A64C6F827
:10464000340200BF36E06178F1A0FFF7E7FC607844
:1046500008B1C6F838422DE06178F6A0FFF7DEFC1D
:10466000607820B12046817886F8281200BF21E0CA
:104670006178F8A0FFF7D2FC6078A8B1B9F1000F1B
:1046800012D06078C9F11001884201D2607801E04F
:10469000C9F11000834605F15D0101EB09005A469E
:1046A000A11C04F02DFB00BF04E06178F5A0FFF72A
:1046B000B5FC00BF00BF6078801C04446078801C9B
:1046C000204440457FF6CAAEF7A0FFF7A7FC09B02B
:1046D000BDE8F08F2DE9F04781460C4690461D4617
:1046E00004EB080A95B14FF41171284604F0A9FBB8
:1046F0000AE027463888801C06192B463246214698
:104700004846FFF730FE34465445F2D30020BDE85A
:10471000F0872DE9FC4780460E4608F116094C4605
:104720005021204604F06BFB2681022E4BD1002045
:104730006081E348006890F8D408052804D00D286B
:1047400004D0102806D103E0012505E0022503E08E
:10475000032501E0012500BF00BF618904F10C00C1
:104760004554D749096891F8D4286389011D102759
:1047700007FB0310D249096801F6D50104F0C0FA1D
:10478000CF48006890F8D418CEA0FFF747FC294620
:10479000D1A0FFF743FCD5A0FFF740FC002708E0BD
:1047A000C748006800F6D500C15DD4A0FFF736FC0D
:1047B0007F1CC348006890F8D408B842F0DCBFA062
:1047C000FFF72CFC08E0042E06D10020FF22030195
:1047D00004F11001CA5400BF0020502322461321C7
:1047E000CDE900404046FFF7C1FCBDE8FC87F8B5C5
:1047F0000446A068002838D069462C20FEF7C7FE82
:10480000022801D1012000E00020064616B3218ACB
:10481000A06804F0F4FA208ABDF80010884201DA9A
:10482000208A0090BDF8000000F0010018B1BDF82A
:104830000000401C01E0BDF8000085B22A461820A7
:10484000A168FFF778F8A84201D1012000E000201C
:10485000064600BF1EB1BDF80000208204E0BDF88E
:10486000000020820020A06000BF10214420FEF73D
:1048700086FEF8BD2DE9F0470746894616463846BC
:10488000FFF7CFFB8046B8F1000F02D04046BDE8ED
:10489000F08749463846FFF781FC47F230513846E9
:1048A000FFF71BFC0446ACB1BD6896B1A87A80B195
:1048B0002989A4F10B00814201D2288901E0A4F1E9
:1048C0000B0084B23346224605F10B013846FFF750
:1048D00001FF00BF3846FFF7C2FB4046D7E72DE98E
:1048E000F84F06468B463046FFF79BFB8146B9F1F1
:1048F000000F02D04846BDE8F88F03E1436D6453D2
:1049000063616E496E74657270726574323A2046E6
:10491000696E6420535349442825642C2573290D5E
:104920000A000000436D645363616E496E746572E2
:1049300070726574323A2046696E64205261746503
:1049400073282564290D0A00436D645363616E4921
:104950006E74657270726574323A2046696E6420B6
:104960004672657175656E637920486F7070696E07
:1049700067282564290D0A00436D645363616E49FD
:104980006E74657270726574323A2046696E642086
:1049900044697265637420537065637472756D2821
:1049A0002564290D0A000000436D645363616E495C
:1049B0006E74657270726574323A2046696E642056
:1049C0004453204368616E6E656C2025642825730E
:1049D000290D0A00436D645363616E496E746572FC
:1049E00070726574323A204346282564290D0A0006
:1049F000436D645363616E496E7465727072657461
:104A0000323A2049425353282564290D0A000000F8
:104A1000436D645363616E496E7465727072657440
:104A2000323A20436F756E747279282564290D0A15
:104A300000000000436D645363616E496E746572DB
:104A400070726574323A20455250282564290D0A47
:104A500000000000436D645363616E496E746572BB
:104A600070726574323A20457874656E642073758F
:104A700070706F7274656420726174657328256448
:104A8000290D0A00436D645363616E496E7465724B
:104A900070726574323A20636378207470632825DD
:104AA00064290D0A000000002D436D645363616E9C
:104AB000496E746572707265743228290D0A00009F
:104AC000400000204B65794C656E6774683A203071
:104AD00078253038580D0A00576570547970653A5A
:104AE000203078253038580D0A0000004B65794D8C
:104AF0006174657269616C3A0D0A00003078253086
:104B000032582C00F9A0FFF789FA59463046FFF7D2
:104B1000A2FB47F230513046FFF7DFFA0746002F7D
:104B200050D006F11605112F03D3688908B900206B
:104B300000E005208146A8890090AB896A89394642
:104B4000F0A0FFF76BFAB9F1000F3AD106F2164464
:104B50006888A0F10E08288960836989A183A989E2
:104B6000E183208B40F001002083208B40F0020085
:104B70002083208B40F004002083606AC0F5FA7A1D
:104B8000C24501DA504600E04046002801DA002024
:104B900004E0C24501DA504600E040468046616AC2
:104BA0000819424605F10E0104F0AAF8C4F8208065
:104BB00000BFD6F8F80840F40050C6F8F80800BF67
:104BC00000BF01E04FF005093046FFF748FADAA0D0
:104BD000FFF724FA4846BDE8F88F2DE9F041064674
:104BE0000F463046FFF71DFA054615B12846BDE8C9
:104BF000F08139463046FFF78CFD47F230513046A0
:104C0000FFF76BFA044604B905253046FFF727FA8B
:104C10002846ECE72DE9FC4106460F463046FFF7F3
:104C200000FA804606F11604B8F1000F02D04046A3
:104C3000BDE8FC817868A0603889A0810320C4F8B1
:104C40000E000020122322462421CDE900403046E8
:104C5000FFF78CFA47F230513046FFF73EFA05462F
:104C60000DB94FF005083046FFF7F9F94046DFE788
:104C70002DE9FE4380460E4615464046FFF7D1F922
:104C8000814608F11604B9F1000F02D04846BDE88C
:104C9000FE832681012E11D12868C4F80A00A88855
:104CA000E08105F11E00811F8A1F931FCDE90021BD
:104CB0000290AA1D2946A6A0FFF7B0F94FF4806024
:104CC000102322464D21CDE900404046FFF74EFA21
:104CD00047F230514046FFF700FA07460FB94FF050
:104CE000050986B9D4F80A002860E089A880E07B2D
:104CF000A17B627BCDE900210290237BE27AA17A3D
:104D0000A0A0FFF78BF94046FFF7A9F94846BEE798
:104D10002DE9FC4781460D4616461F464846FFF7DB
:104D200080F9824609F11604BAF1000F02D050460C
:104D3000BDE8FC872581012D0BD1162060813088CC
:104D40004FF6FF7101EA0010A081388801EA0010D7
:104D5000E0814FF48060102322465A21CDE90040C3
:104D60004846FFF703FA47F230514846FFF7B5F9D6
:104D70008046B8F1000F02D14FF0050A0CE05DB992
:104D8000A089C11700EB117109113180E089C117A9
:104D900000EB1171091139804846FFF760F9504660
:104DA000C6E72DE9FC4106463046FFF73AF90746CB
:104DB00006F1160417B13846BDE8FC8101202081B8
:104DC000092060814FF48270A081022104F10C005F
:104DD000E181442121741021617440F20510608248
:104DE000022104F11200A1820021A175E1754FF4A6
:104DF00083702083022104F1180061830021217750
:104E0000617740F20710E083022104F11E00218443
:104E10003C21222001550021232001554FF48B70A5
:104E2000A084022104F12400E1843A2128200155C4
:104E300010212920015540F217106085022104F14C
:104E40002A00A18500212E2001552F20015540F276
:104E500049102086022104F13000618600213420AF
:104E60000155352001550020362322467521CDE914
:104E700000403046FFF77AF947F230513046FFF7ED
:104E80002CF9054605B905273046FFF7E8F83846FE
:104E900092E72DE9FC4106460F463046FFF7C1F880
:104EA000804606F11604B8F1000F02D04046BDE876
:104EB000FC8139463FA0FFF7B1F8278100200C2381
:104EC00022462821CDE900403046FFF74FF947F24E
:104ED00030513046FFF701F905460DB94FF005088E
:104EE0003046FFF7BCF84046E1E700002B436D6415
:104EF0004173736F636961746545787428290D0A7D
:104F000000000000576C616E2E436D644173736F37
:104F100063696174654578743A2072633D25303861
:104F2000782C53433D253034782C4149443D25307D
:104F300034780D0A000000002D436D644173736FD7
:104F4000636961746545787428290D0A00000000C2
:104F500053657474696E67204D41432041646472E7
:104F60003A20253032582D253032582D25303258F0
:104F70002D253032582D253032582D253032580D00
:104F80000A000000476F74204D4143204164647261
:104F90003A20253032582D253032582D25303258C0
:104FA0002D253032582D253032582D253032580DD0
:104FB0000A000000436D644D6163436F6E74726F4D
:104FC0006C3A20416374696F6E3D307825303478D7
:104FD0000D0A00000246002070470246002070477C
:104FE0002DE9F04F85B007460D463846FFF719F812
:104FF000049007F1160404F14D0003902E4605F1CC
:10500000740002904D21204603F0F9FE07F505617A
:1050100004F1080003F031FE022004F8280F0020FC
:10502000A4F801000320E07006202071283C022132
:105030002D200155002104F12C00E185032084F886
:10504000340001213520015506213620015500206C
:1050500024F83B0FA07820F00200801CA070A078FC
:1050600020F020002030A0703B3C97F87308022805
:1050700001D1012000E000203F3414F8021C60F34D
:10508000041104F8021C98480168216041686160BD
:105090008068A0603F3C40F2B33104F14D004D23E5
:1050A0002246CDE900012B213846FFF75FF847F291
:1050B00030513846FFF711F88046B8F1110F01D290
:1050C000052004900498002872D14FF411712846ED
:1050D00003F0B7FE039850F80B1F71608088308191
:1050E0000020C5F840020C2028676FF009007063AB
:1050F0002020F063B4F83D100298418197F87308BE
:10510000022801D1012000E000203063002086F851
:105110005C0007F5056003F0D4FDF06007F505605D
:1051200003F0CFFD81464A4607F5056106F1100000
:1051300003F02BFE3520005D00F1020B05F1740039
:10514000296F01EB0009CA465A4604F13401504662
:1051500003F0D6FD032086F838009AF8020000EB31
:10516000800000F66710B0649AF80200C5F82C02BF
:10517000286F584428672D20005D00F1020905F1D1
:105180007400296F01EB000AD3464A4604F12C0152
:10519000584603F0B5FDC5F834B2286F4844286777
:1051A000286F743030603068C01C20F0030030601D
:1051B0003846FEF754FF049805B0BDE8F08F2DE99E
:1051C000FC4104462046FEF72CFF064604F1160576
:1051D0004FF4806008232A464021CDE90050204644
:1051E000FEF7C4FF47F230512046FEF776FF074630
:1051F000082F00D005262046FEF731FF3046BDE8D7
:10520000FC812DE9F04F8DB006460D463046FEF785
:1052100008FF81460AAF06F1160400200A900B90A1
:105220000C90012020817868C4F80A00387AA073B5
:105230004FF480600F2322467221CDE900403046B2
:10524000FEF794FF47F230513046FEF746FF8046A6
:10525000B8F10F0F01D04FF005094FF0010A0DF121
:10526000080B06F116044FF48A70ADF808001820F8
:10527000ADF80A00ADF80C500102ADF80E10ADF813
:1052800014504FF4FC61ADF81610ADF81C500F210E
:10529000ADF81E1001202081A4F80AA02C22594646
:1052A00004F10C0003F02CFD0C27E089001D0744DD
:1052B0004FF48060BBB222467E21CDE900403046EB
:1052C000FEF754FF47F230513046FEF706FF8046A6
:1052D000B84501D04FF005093046FEF7C0FE4846FC
:1052E0000DB0BDE8F08F000054A40008704770476F
:1052F00070470021C0F8F81840F6630181827047BA
:1053000010B5044640F6FC01204603F09AFD204605
:10531000FFF7EFFF2046FEF79BF920B909A0FFF742
:10532000E5FF002010BD2046FEF7DBFA20B90CA0F7
:10533000FFF7DCFF0020F5E72046FFF732FD0120F4
:10534000F0E70000496E7465726661636520696EFE
:105350006974206661696C656421210D0A00000092
:10536000496E74657266616365207374617274203E
:10537000646576696365206661696C656421210DE9
:105380000A0000007047704770472DE9F04105465C
:105390000C46284603F095FCC6B287A0FFF7F2FF43
:1053A000052E06D00A2E13D00D2E03D01A2E3ED174
:1053B0000FE000BF284603F084FC07463A46294622
:1053C000204603F09DFC284603F07BFCC6B231E08A
:1053D00000BF2846214624E00778392F02DC0778F1
:1053E000303F07E00778462F02DC0778373F01E0BF
:1053F0000778573FFAB2401C0778392F02DC07784C
:10540000303F07E00778462F02DC0778373F01E09E
:105410000778573FFBB2401C03EB02170F70491C83
:1054200000BF0278002AD7D10A1BD6B202E00020C2
:10543000BDE8F08100BF64A0FFF7A4FF3046F7E7A6
:10544000F0B585B004460F46002622E000E0641C5B
:1054500020782028FBD020780928F8D0207818B9A7
:1054600000204DF8260016E03046711CCEB24DF8F3
:10547000204000E0641C207810B120782E28F9D15B
:10548000207818B900204DF8260004E0002004F828
:10549000010B042EDADB00BF042E02D0002005B081
:1054A000F0BD002507E05DF8250003F0D9FB04A955
:1054B0004855681CC5B2042DF5DB9DF813009DF816
:1054C000121040EA01209DF8111040EA01409DF8B9
:1054D000101040EA016038600120E0E770B586B046
:1054E00002460C46002322E000E0521C10782028DF
:1054F000FBD010780928F8D0107818B900204DF8A2
:10550000230016E018465D1CEBB24DF8202000E0A9
:10551000521C107810B110783A28F9D1107818B9C7
:1055200000204DF8230004E0002002F8010B062BB8
:10553000DADB00BF062B02D0002006B070BD0021D0
:1055400036E05DF821603678392E04DC5DF82160A4
:105550003678303E0DE05DF821603678462E04DC6A
:105560005DF821603678373E03E05DF821603678DB
:10557000573EF0B25DF821607678392E04DC5DF894
:1055800021607678303E0DE05DF821607678462E19
:1055900004DC5DF821607678373E03E05DF8216039
:1055A0007678573EF5B205EB00166654481CC1B23A
:1055B0000629C6DB0120C0E72B5365745745504BC5
:1055C000657928290D0A00002D5365745745504B05
:1055D000657928290D0A00007047704770472DE94A
:1055E000F84F82460E4617464FF0010969462820BB
:1055F000FDF7CDFF022801D04FF00009B9F1000FEF
:1056000012D0BDF800002A2805D9BDF8000040F2EC
:105610005461884208D9BDF800306FA228211F20AC
:10562000FFF7DCFF4FF00009B9F1000F64D0002450
:10563000BDF8000000F11808BDF8000000F00100FE
:105640008044B8F5805F0AD941466AA0FFF7C4FFDD
:1056500002214420FDF793FF0020BDE8F88F40466B
:1056600003F00EF904465CB96FA228211F20FFF752
:10567000B5FF02214420FDF782FF00203860ECE7EF
:10568000BDF80000143885B2BDF8000000F001003C
:1056900020B1BDF80000401C80B20090BDF8002091
:1056A00021462420FEF747F9BDF80010884201D0BA
:1056B0004FF00009A088A84209D0A288294663A01B
:1056C000FFF78AFF4FF000090020386010E0A06863
:1056D00001192A46304603F013FBA5F1140206F126
:1056E000140106F10C0003F00BFBA5F10800386073
:1056F000204603F0F4F800BF02214420FDF73FFFED
:105700004846AAE72DE9F04781460F461446002592
:1057100004F1180604F0010008B1052000E004209F
:105720000644B6F5805F0AD9314653A0FFF754FF0F
:1057300002214420FDF723FF0020BDE8F08730461A
:1057400003F09EF8054635B958A228211F20FFF71F
:1057500045FF0020F1E71821284603F050FB2246C0
:10576000394605F1180003F0CBFA01202860AC811E
:105770001820A8603868C5F80E00B8886882183408
:1057800004F0010008B1052000E004200444224692
:1057900029462420FDF78DFFA04201D04FF00008DC
:1057A00001214420FDF7EBFE284603F098F840461F
:1057B000C3E7704710B5044645A0FFF70DFF00BFD3
:1057C000D4F8F80840F40060C4F8F80800BF45A019
:1057D000FFF702FF10BD0000506B745263766550F6
:1057E0006B743A206E4275664C656E3D25642021CF
:1057F0000D0A0000506B7452637665506B743A204A
:105800004572726F72207061636B6574206C656E97
:1058100067746828746F6F206C6F6E6729203D2055
:10582000256421210D0A0000506B74526376655087
:105830006B743A206D656D6F727920616C6C6F636B
:10584000206661696C6564210D0A0000506B74521A
:10585000637665506B743A206E506B744C656E21A4
:105860003D70527850442D3E506B744C656E5B25F4
:1058700064213D25645D0A00506B7453656E64506D
:105880006B743A204572726F72207061636B65743D
:10589000206C656E67746828746F6F206C6F6E671C
:1058A00029203D20256421210D0A0000506B7453EE
:1058B000656E64506B743A206D656D6F727920610E
:1058C0006C6C6F63206661696C6564210D0A000071
:1058D0002B506B744F6E506B745263766528290D94
:1058E0000A0000002D506B744F6E506B745263763B
:1058F0006528290D0A000000FC4908807047C2781D
:105900000A44FB4BDA70827802EB21229A704278CB
:105910005A7002781A701A469278B2EB212F0ADA7E
:105920001A465278521C5A701A4652781AB91A46B8
:105930001278521C1A70EE4AD278CBB29A4212DA1E
:10594000EB4A9278521CEA4B9A701A46927852B9F6
:105950001A465278521C5A701A4652781AB91A4688
:105960001278521C1A707047F0B50B46144619464F
:105970001E19751E0BE04E780F7806EB0726B2B2A3
:105980008618B0B2904201DA461CB0B2891CA94216
:10599000F1D3A9420AD10E78002707EB0626B2B24E
:1059A0008618B0B2904201DA461CB0B2F0BD014692
:1059B000080240EA212080B2704770B504460D46C7
:1059C0002A4621460020FFF7CFFF0646FFF7EFFFEC
:1059D00070BD10B51422C7490020FFF7C5FF04466B
:1059E00014B94FF6FF7010BD2046FFF7E0FFFAE74D
:1059F00070B50446BF480E38417C007C01EB0020A6
:105A0000143885B2281986B20822BA490C313046BA
:105A1000FFF7AAFF06462A46B64914313046FFF77B
:105A2000A3FF064616B94FF6FF7070BD3046FFF76C
:105A3000BEFFFAE710B50620FFF7DAFF10BD002021
:105A4000AD4908700AE00020AC49AB4A127821F851
:105A50001200A9480078401CA7490870A6480078A1
:105A60002828F0DB0020A44908700DE00020A2499E
:105A7000097801EB8101A24A02EBC10148769E48F8
:105A80000078401C9C4908709B4800782828EDDB72
:105A90004FF480609B4908800020974908700DE012
:105AA00000209549097801EB8101974A02EB4101F9
:105AB000888091480078401C8F4908708E48007893
:105AC0000328EDDB704730B504460D4600BF8D4816
:105AD0000088401C8B49088008460088B0F5FA4FC2
